{"contracts/TransferRegistry.sol":{"TransferRegistry":{"abi":[{"inputs":[{"internalType":"contract RoleManager","name":"_roles","type":"address"}],"stateMutability":"nonpayable","type":"constructor"},{"anonymous":false,"inputs":[{"indexed":true,"internalType":"uint256","name":"id","type":"uint256"},{"indexed":true,"internalType":"uint256","name":"playerId","type":"uint256"},{"indexed":true,"internalType":"address","name":"fromClub","type":"address"},{"indexed":false,"internalType":"address","name":"toClub","type":"address"},{"indexed":false,"internalType":"uint256","name":"feeWei","type":"uint256"},{"indexed":false,"internalType":"address","name":"agent","type":"address"},{"indexed":false,"internalType":"uint256","name":"agentFeeWei","type":"uint256"},{"indexed":false,"internalType":"bytes32","name":"docSha256","type":"bytes32"},{"indexed":false,"internalType":"string","name":"ipfsCid","type":"string"},{"indexed":false,"internalType":"uint64","name":"ts","type":"uint64"}],"name":"TransferRecorded","type":"event"},{"inputs":[{"internalType":"uint256","name":"playerId","type":"uint256"},{"internalType":"address","name":"toClub","type":"address"},{"internalType":"uint256","name":"feeWei","type":"uint256"},{"internalType":"address","name":"agent","type":"address"},{"internalType":"uint256","name":"agentFeeWei","type":"uint256"},{"internalType":"bytes32","name":"docSha256","type":"bytes32"},{"internalType":"string","name":"ipfsCid","type":"string"}],"name":"recordTransfer","outputs":[{"internalType":"uint256","name":"id","type":"uint256"}],"stateMutability":"nonpayable","type":"function"},{"inputs":[],"name":"roles","outputs":[{"internalType":"contract RoleManager","name":"","type":"address"}],"stateMutability":"view","type":"function"},{"inputs":[],"name":"transferCount","outputs":[{"internalType":"uint256","name":"","type":"uint256"}],"stateMutability":"view","type":"function"},{"inputs":[{"internalType":"uint256","name":"","type":"uint256"}],"name":"transfers","outputs":[{"internalType":"uint256","name":"playerId","type":"uint256"},{"internalType":"address","name":"fromClub","type":"address"},{"internalType":"address","name":"toClub","type":"address"},{"internalType":"uint256","name":"feeWei","type":"uint256"},{"internalType":"address","name":"agent","type":"address"},{"internalType":"uint256","name":"agentFeeWei","type":"uint256"},{"internalType":"bytes32","name":"docSha256","type":"bytes32"},{"internalType":"string","name":"ipfsCid","type":"string"},{"internalType":"uint64","name":"ts","type":"uint64"}],"stateMutability":"view","type":"function"}],"evm":{"bytecode":{"linkReferences":{},"object":"608060405234801561001057600080fd5b50604051611179380380611179833981810160405281019061003291906100ed565b806000806101000a81548173ffffffffffffffffffffffffffffffffffffffff021916908373ffffffffffffffffffffffffffffffffffffffff1602179055505061011a565b600080fd5b600073ffffffffffffffffffffffffffffffffffffffff82169050919050565b60006100a88261007d565b9050919050565b60006100ba8261009d565b9050919050565b6100ca816100af565b81146100d557600080fd5b50565b6000815190506100e7816100c1565b92915050565b60006020828403121561010357610102610078565b5b6000610111848285016100d8565b91505092915050565b611050806101296000396000f3fe608060405234801561001057600080fd5b506004361061004c5760003560e01c8063392f5f64146100515780639377d7111461006f578063c331a5f0146100a7578063e3d33fc9146100d7575b600080fd5b6100596100f5565b60405161006691906106fe565b60405180910390f35b61008960048036038101906100849190610759565b610119565b60405161009e99989796959493929190610882565b60405180910390f35b6100c160048036038101906100bc91906109d3565b610263565b6040516100ce9190610a95565b60405180910390f35b6100df610679565b6040516100ec9190610a95565b60405180910390f35b60008054906101000a900473ffffffffffffffffffffffffffffffffffffffff1681565b60026020528060005260406000206000915090508060000154908060010160009054906101000a900473ffffffffffffffffffffffffffffffffffffffff16908060020160009054906101000a900473ffffffffffffffffffffffffffffffffffffffff16908060030154908060040160009054906101000a900473ffffffffffffffffffffffffffffffffffffffff16908060050154908060060154908060070180546101c690610adf565b80601f01602080910402602001604051908101604052809291908181526020018280546101f290610adf565b801561023f5780601f106102145761010080835404028352916020019161023f565b820191906000526020600020905b81548152906001019060200180831161022257829003601f168201915b5050505050908060080160009054906101000a900467ffffffffffffffff16905089565b60008060009054906101000a900473ffffffffffffffffffffffffffffffffffffffff1673ffffffffffffffffffffffffffffffffffffffff166391d1485460008054906101000a900473ffffffffffffffffffffffffffffffffffffffff1673ffffffffffffffffffffffffffffffffffffffff1663fc8045b16040518163ffffffff1660e01b8152600401602060405180830381865afa15801561030d573d6000803e3d6000fd5b505050506040513d601f19601f820116820180604052508101906103319190610b25565b336040518363ffffffff1660e01b815260040161034f929190610b52565b602060405180830381865afa15801561036c573d6000803e3d6000fd5b505050506040513d601f19601f820116820180604052508101906103909190610bb3565b6103cf576040517f08c379a00000000000000000000000000000000000000000000000000000000081526004016103c690610c2c565b60405180910390fd5b6001600081546103de90610c7b565b91905081905590506040518061012001604052808a81526020013373ffffffffffffffffffffffffffffffffffffffff1681526020018973ffffffffffffffffffffffffffffffffffffffff1681526020018881526020018773ffffffffffffffffffffffffffffffffffffffff16815260200186815260200185815260200184848080601f016020809104026020016040519081016040528093929190818152602001838380828437600081840152601f19601f8201169050808301925050505050505081526020014267ffffffffffffffff16815250600260008381526020019081526020016000206000820151816000015560208201518160010160006101000a81548173ffffffffffffffffffffffffffffffffffffffff021916908373ffffffffffffffffffffffffffffffffffffffff16021790555060408201518160020160006101000a81548173ffffffffffffffffffffffffffffffffffffffff021916908373ffffffffffffffffffffffffffffffffffffffff1602179055506060820151816003015560808201518160040160006101000a81548173ffffffffffffffffffffffffffffffffffffffff021916908373ffffffffffffffffffffffffffffffffffffffff16021790555060a0820151816005015560c0820151816006015560e08201518160070190816105db9190610e94565b506101008201518160080160006101000a81548167ffffffffffffffff021916908367ffffffffffffffff1602179055509050503373ffffffffffffffffffffffffffffffffffffffff1689827fc8dcb7e50d731e58fd9d1007c35e31eb19a616a57dc2dab21e096e7e9db246168b8b8b8b8b8b8b42604051610665989796959493929190610fa2565b60405180910390a498975050505050505050565b60015481565b600073ffffffffffffffffffffffffffffffffffffffff82169050919050565b6000819050919050565b60006106c46106bf6106ba8461067f565b61069f565b61067f565b9050919050565b60006106d6826106a9565b9050919050565b60006106e8826106cb565b9050919050565b6106f8816106dd565b82525050565b600060208201905061071360008301846106ef565b92915050565b600080fd5b600080fd5b6000819050919050565b61073681610723565b811461074157600080fd5b50565b6000813590506107538161072d565b92915050565b60006020828403121561076f5761076e610719565b5b600061077d84828501610744565b91505092915050565b61078f81610723565b82525050565b60006107a08261067f565b9050919050565b6107b081610795565b82525050565b6000819050919050565b6107c9816107b6565b82525050565b600081519050919050565b600082825260208201905092915050565b60005b838110156108095780820151818401526020810190506107ee565b60008484015250505050565b6000601f19601f8301169050919050565b6000610831826107cf565b61083b81856107da565b935061084b8185602086016107eb565b61085481610815565b840191505092915050565b600067ffffffffffffffff82169050919050565b61087c8161085f565b82525050565b600061012082019050610898600083018c610786565b6108a5602083018b6107a7565b6108b2604083018a6107a7565b6108bf6060830189610786565b6108cc60808301886107a7565b6108d960a0830187610786565b6108e660c08301866107c0565b81810360e08301526108f88185610826565b9050610908610100830184610873565b9a9950505050505050505050565b61091f81610795565b811461092a57600080fd5b50565b60008135905061093c81610916565b92915050565b61094b816107b6565b811461095657600080fd5b50565b60008135905061096881610942565b92915050565b600080fd5b600080fd5b600080fd5b60008083601f8401126109935761099261096e565b5b8235905067ffffffffffffffff8111156109b0576109af610973565b5b6020830191508360018202830111156109cc576109cb610978565b5b9250929050565b60008060008060008060008060e0898b0312156109f3576109f2610719565b5b6000610a018b828c01610744565b9850506020610a128b828c0161092d565b9750506040610a238b828c01610744565b9650506060610a348b828c0161092d565b9550506080610a458b828c01610744565b94505060a0610a568b828c01610959565b93505060c089013567ffffffffffffffff811115610a7757610a7661071e565b5b610a838b828c0161097d565b92509250509295985092959890939650565b6000602082019050610aaa6000830184610786565b92915050565b7f4e487b7100000000000000000000000000000000000000000000000000000000600052602260045260246000fd5b60006002820490506001821680610af757607f821691505b602082108103610b0a57610b09610ab0565b5b50919050565b600081519050610b1f81610942565b92915050565b600060208284031215610b3b57610b3a610719565b5b6000610b4984828501610b10565b91505092915050565b6000604082019050610b6760008301856107c0565b610b7460208301846107a7565b9392505050565b60008115159050919050565b610b9081610b7b565b8114610b9b57600080fd5b50565b600081519050610bad81610b87565b92915050565b600060208284031215610bc957610bc8610719565b5b6000610bd784828501610b9e565b91505092915050565b7f4e4f545f434c5542000000000000000000000000000000000000000000000000600082015250565b6000610c166008836107da565b9150610c2182610be0565b602082019050919050565b60006020820190508181036000830152610c4581610c09565b9050919050565b7f4e487b7100000000000000000000000000000000000000000000000000000000600052601160045260246000fd5b6000610c8682610723565b91507fffffffffffffffffffffffffffffffffffffffffffffffffffffffffffffffff8203610cb857610cb7610c4c565b5b600182019050919050565b7f4e487b7100000000000000000000000000000000000000000000000000000000600052604160045260246000fd5b60008190508160005260206000209050919050565b60006020601f8301049050919050565b600082821b905092915050565b600060088302610d547fffffffffffffffffffffffffffffffffffffffffffffffffffffffffffffffff82610d17565b610d5e8683610d17565b95508019841693508086168417925050509392505050565b6000610d91610d8c610d8784610723565b61069f565b610723565b9050919050565b6000819050919050565b610dab83610d76565b610dbf610db782610d98565b848454610d24565b825550505050565b600090565b610dd4610dc7565b610ddf818484610da2565b505050565b5b81811015610e0357610df8600082610dcc565b600181019050610de5565b5050565b601f821115610e4857610e1981610cf2565b610e2284610d07565b81016020851015610e31578190505b610e45610e3d85610d07565b830182610de4565b50505b505050565b600082821c905092915050565b6000610e6b60001984600802610e4d565b1980831691505092915050565b6000610e848383610e5a565b9150826002028217905092915050565b610e9d826107cf565b67ffffffffffffffff811115610eb657610eb5610cc3565b5b610ec08254610adf565b610ecb828285610e07565b600060209050601f831160018114610efe5760008415610eec578287015190505b610ef68582610e78565b865550610f5e565b601f198416610f0c86610cf2565b60005b82811015610f3457848901518255600182019150602085019450602081019050610f0f565b86831015610f515784890151610f4d601f891682610e5a565b8355505b6001600288020188555050505b505050505050565b82818337600083830152505050565b6000610f8183856107da565b9350610f8e838584610f66565b610f9783610815565b840190509392505050565b600060e082019050610fb7600083018b6107a7565b610fc4602083018a610786565b610fd160408301896107a7565b610fde6060830188610786565b610feb60808301876107c0565b81810360a0830152610ffe818587610f75565b905061100d60c0830184610873565b999850505050505050505056fea2646970667358221220ecd97405cb978d10455c3b8987b4810878943bbd77219464505a2e4bf3266e5b64736f6c634300081c0033","opcodes":"PUSH1 0x80 PUSH1 0x40 MSTORE CALLVALUE DUP1 ISZERO PUSH2 0x10 JUMPI PUSH1 0x0 DUP1 REVERT JUMPDEST POP PUSH1 0x40 MLOAD PUSH2 0x1179 CODESIZE SUB DUP1 PUSH2 0x1179 DUP4 CODECOPY DUP2 DUP2 ADD PUSH1 0x40 MSTORE DUP2 ADD SWAP1 PUSH2 0x32 SWAP2 SWAP1 PUSH2 0xED JUMP JUMPDEST DUP1 PUSH1 0x0 DUP1 PUSH2 0x100 EXP DUP2 SLOAD DUP2 PUSH20 0xFFFFFFFFFFFFFFFFFFFFFFFFFFFFFFFFFFFFFFFF MUL NOT AND SWAP1 DUP4 PUSH20 0xFFFFFFFFFFFFFFFFFFFFFFFFFFFFFFFFFFFFFFFF AND MUL OR SWAP1 SSTORE POP POP PUSH2 0x11A JUMP JUMPDEST PUSH1 0x0 DUP1 REVERT JUMPDEST PUSH1 0x0 PUSH20 0xFFFFFFFFFFFFFFFFFFFFFFFFFFFFFFFFFFFFFFFF DUP3 AND SWAP1 POP SWAP2 SWAP1 POP JUMP JUMPDEST PUSH1 0x0 PUSH2 0xA8 DUP3 PUSH2 0x7D JUMP JUMPDEST SWAP1 POP SWAP2 SWAP1 POP JUMP JUMPDEST PUSH1 0x0 PUSH2 0xBA DUP3 PUSH2 0x9D JUMP JUMPDEST SWAP1 POP SWAP2 SWAP1 POP JUMP JUMPDEST PUSH2 0xCA DUP2 PUSH2 0xAF JUMP JUMPDEST DUP2 EQ PUSH2 0xD5 JUMPI PUSH1 0x0 DUP1 REVERT JUMPDEST POP JUMP JUMPDEST PUSH1 0x0 DUP2 MLOAD SWAP1 POP PUSH2 0xE7 DUP2 PUSH2 0xC1 JUMP JUMPDEST SWAP3 SWAP2 POP POP JUMP JUMPDEST PUSH1 0x0 PUSH1 0x20 DUP3 DUP5 SUB SLT ISZERO PUSH2 0x103 JUMPI PUSH2 0x102 PUSH2 0x78 JUMP JUMPDEST JUMPDEST PUSH1 0x0 PUSH2 0x111 DUP5 DUP3 DUP6 ADD PUSH2 0xD8 JUMP JUMPDEST SWAP2 POP POP SWAP3 SWAP2 POP POP JUMP JUMPDEST PUSH2 0x1050 DUP1 PUSH2 0x129 PUSH1 0x0 CODECOPY PUSH1 0x0 RETURN INVALID PUSH1 0x80 PUSH1 0x40 MSTORE CALLVALUE DUP1 ISZERO PUSH2 0x10 JUMPI PUSH1 0x0 DUP1 REVERT JUMPDEST POP PUSH1 0x4 CALLDATASIZE LT PUSH2 0x4C JUMPI PUSH1 0x0 CALLDATALOAD PUSH1 0xE0 SHR DUP1 PUSH4 0x392F5F64 EQ PUSH2 0x51 JUMPI DUP1 PUSH4 0x9377D711 EQ PUSH2 0x6F JUMPI DUP1 PUSH4 0xC331A5F0 EQ PUSH2 0xA7 JUMPI DUP1 PUSH4 0xE3D33FC9 EQ PUSH2 0xD7 JUMPI JUMPDEST PUSH1 0x0 DUP1 REVERT JUMPDEST PUSH2 0x59 PUSH2 0xF5 JUMP JUMPDEST PUSH1 0x40 MLOAD PUSH2 0x66 SWAP2 SWAP1 PUSH2 0x6FE JUMP JUMPDEST PUSH1 0x40 MLOAD DUP1 SWAP2 SUB SWAP1 RETURN JUMPDEST PUSH2 0x89 PUSH1 0x4 DUP1 CALLDATASIZE SUB DUP2 ADD SWAP1 PUSH2 0x84 SWAP2 SWAP1 PUSH2 0x759 JUMP JUMPDEST PUSH2 0x119 JUMP JUMPDEST PUSH1 0x40 MLOAD PUSH2 0x9E SWAP10 SWAP9 SWAP8 SWAP7 SWAP6 SWAP5 SWAP4 SWAP3 SWAP2 SWAP1 PUSH2 0x882 JUMP JUMPDEST PUSH1 0x40 MLOAD DUP1 SWAP2 SUB SWAP1 RETURN JUMPDEST PUSH2 0xC1 PUSH1 0x4 DUP1 CALLDATASIZE SUB DUP2 ADD SWAP1 PUSH2 0xBC SWAP2 SWAP1 PUSH2 0x9D3 JUMP JUMPDEST PUSH2 0x263 JUMP JUMPDEST PUSH1 0x40 MLOAD PUSH2 0xCE SWAP2 SWAP1 PUSH2 0xA95 JUMP JUMPDEST PUSH1 0x40 MLOAD DUP1 SWAP2 SUB SWAP1 RETURN JUMPDEST PUSH2 0xDF PUSH2 0x679 JUMP JUMPDEST PUSH1 0x40 MLOAD PUSH2 0xEC SWAP2 SWAP1 PUSH2 0xA95 JUMP JUMPDEST PUSH1 0x40 MLOAD DUP1 SWAP2 SUB SWAP1 RETURN JUMPDEST PUSH1 0x0 DUP1 SLOAD SWAP1 PUSH2 0x100 EXP SWAP1 DIV PUSH20 0xFFFFFFFFFFFFFFFFFFFFFFFFFFFFFFFFFFFFFFFF AND DUP2 JUMP JUMPDEST PUSH1 0x2 PUSH1 0x20 MSTORE DUP1 PUSH1 0x0 MSTORE PUSH1 0x40 PUSH1 0x0 KECCAK256 PUSH1 0x0 SWAP2 POP SWAP1 POP DUP1 PUSH1 0x0 ADD SLOAD SWAP1 DUP1 PUSH1 0x1 ADD PUSH1 0x0 SWAP1 SLOAD SWAP1 PUSH2 0x100 EXP SWAP1 DIV PUSH20 0xFFFFFFFFFFFFFFFFFFFFFFFFFFFFFFFFFFFFFFFF AND SWAP1 DUP1 PUSH1 0x2 ADD PUSH1 0x0 SWAP1 SLOAD SWAP1 PUSH2 0x100 EXP SWAP1 DIV PUSH20 0xFFFFFFFFFFFFFFFFFFFFFFFFFFFFFFFFFFFFFFFF AND SWAP1 DUP1 PUSH1 0x3 ADD SLOAD SWAP1 DUP1 PUSH1 0x4 ADD PUSH1 0x0 SWAP1 SLOAD SWAP1 PUSH2 0x100 EXP SWAP1 DIV PUSH20 0xFFFFFFFFFFFFFFFFFFFFFFFFFFFFFFFFFFFFFFFF AND SWAP1 DUP1 PUSH1 0x5 ADD SLOAD SWAP1 DUP1 PUSH1 0x6 ADD SLOAD SWAP1 DUP1 PUSH1 0x7 ADD DUP1 SLOAD PUSH2 0x1C6 SWAP1 PUSH2 0xADF JUMP JUMPDEST DUP1 PUSH1 0x1F ADD PUSH1 0x20 DUP1 SWAP2 DIV MUL PUSH1 0x20 ADD PUSH1 0x40 MLOAD SWAP1 DUP2 ADD PUSH1 0x40 MSTORE DUP1 SWAP3 SWAP2 SWAP1 DUP2 DUP2 MSTORE PUSH1 0x20 ADD DUP3 DUP1 SLOAD PUSH2 0x1F2 SWAP1 PUSH2 0xADF JUMP JUMPDEST DUP1 ISZERO PUSH2 0x23F JUMPI DUP1 PUSH1 0x1F LT PUSH2 0x214 JUMPI PUSH2 0x100 DUP1 DUP4 SLOAD DIV MUL DUP4 MSTORE SWAP2 PUSH1 0x20 ADD SWAP2 PUSH2 0x23F JUMP JUMPDEST DUP3 ADD SWAP2 SWAP1 PUSH1 0x0 MSTORE PUSH1 0x20 PUSH1 0x0 KECCAK256 SWAP1 JUMPDEST DUP2 SLOAD DUP2 MSTORE SWAP1 PUSH1 0x1 ADD SWAP1 PUSH1 0x20 ADD DUP1 DUP4 GT PUSH2 0x222 JUMPI DUP3 SWAP1 SUB PUSH1 0x1F AND DUP3 ADD SWAP2 JUMPDEST POP POP POP POP POP SWAP1 DUP1 PUSH1 0x8 ADD PUSH1 0x0 SWAP1 SLOAD SWAP1 PUSH2 0x100 EXP SWAP1 DIV PUSH8 0xFFFFFFFFFFFFFFFF AND SWAP1 POP DUP10 JUMP JUMPDEST PUSH1 0x0 DUP1 PUSH1 0x0 SWAP1 SLOAD SWAP1 PUSH2 0x100 EXP SWAP1 DIV PUSH20 0xFFFFFFFFFFFFFFFFFFFFFFFFFFFFFFFFFFFFFFFF AND PUSH20 0xFFFFFFFFFFFFFFFFFFFFFFFFFFFFFFFFFFFFFFFF AND PUSH4 0x91D14854 PUSH1 0x0 DUP1 SLOAD SWAP1 PUSH2 0x100 EXP SWAP1 DIV PUSH20 0xFFFFFFFFFFFFFFFFFFFFFFFFFFFFFFFFFFFFFFFF AND PUSH20 0xFFFFFFFFFFFFFFFFFFFFFFFFFFFFFFFFFFFFFFFF AND PUSH4 0xFC8045B1 PUSH1 0x40 MLOAD DUP2 PUSH4 0xFFFFFFFF AND PUSH1 0xE0 SHL DUP2 MSTORE PUSH1 0x4 ADD PUSH1 0x20 PUSH1 0x40 MLOAD DUP1 DUP4 SUB DUP2 DUP7 GAS STATICCALL ISZERO DUP1 ISZERO PUSH2 0x30D JUMPI RETURNDATASIZE PUSH1 0x0 DUP1 RETURNDATACOPY RETURNDATASIZE PUSH1 0x0 REVERT JUMPDEST POP POP POP POP PUSH1 0x40 MLOAD RETURNDATASIZE PUSH1 0x1F NOT PUSH1 0x1F DUP3 ADD AND DUP3 ADD DUP1 PUSH1 0x40 MSTORE POP DUP2 ADD SWAP1 PUSH2 0x331 SWAP2 SWAP1 PUSH2 0xB25 JUMP JUMPDEST CALLER PUSH1 0x40 MLOAD DUP4 PUSH4 0xFFFFFFFF AND PUSH1 0xE0 SHL DUP2 MSTORE PUSH1 0x4 ADD PUSH2 0x34F SWAP3 SWAP2 SWAP1 PUSH2 0xB52 JUMP JUMPDEST PUSH1 0x20 PUSH1 0x40 MLOAD DUP1 DUP4 SUB DUP2 DUP7 GAS STATICCALL ISZERO DUP1 ISZERO PUSH2 0x36C JUMPI RETURNDATASIZE PUSH1 0x0 DUP1 RETURNDATACOPY RETURNDATASIZE PUSH1 0x0 REVERT JUMPDEST POP POP POP POP PUSH1 0x40 MLOAD RETURNDATASIZE PUSH1 0x1F NOT PUSH1 0x1F DUP3 ADD AND DUP3 ADD DUP1 PUSH1 0x40 MSTORE POP DUP2 ADD SWAP1 PUSH2 0x390 SWAP2 SWAP1 PUSH2 0xBB3 JUMP JUMPDEST PUSH2 0x3CF JUMPI PUSH1 0x40 MLOAD PUSH32 0x8C379A000000000000000000000000000000000000000000000000000000000 DUP2 MSTORE PUSH1 0x4 ADD PUSH2 0x3C6 SWAP1 PUSH2 0xC2C JUMP JUMPDEST PUSH1 0x40 MLOAD DUP1 SWAP2 SUB SWAP1 REVERT JUMPDEST PUSH1 0x1 PUSH1 0x0 DUP2 SLOAD PUSH2 0x3DE SWAP1 PUSH2 0xC7B JUMP JUMPDEST SWAP2 SWAP1 POP DUP2 SWAP1 SSTORE SWAP1 POP PUSH1 0x40 MLOAD DUP1 PUSH2 0x120 ADD PUSH1 0x40 MSTORE DUP1 DUP11 DUP2 MSTORE PUSH1 0x20 ADD CALLER PUSH20 0xFFFFFFFFFFFFFFFFFFFFFFFFFFFFFFFFFFFFFFFF AND DUP2 MSTORE PUSH1 0x20 ADD DUP10 PUSH20 0xFFFFFFFFFFFFFFFFFFFFFFFFFFFFFFFFFFFFFFFF AND DUP2 MSTORE PUSH1 0x20 ADD DUP9 DUP2 MSTORE PUSH1 0x20 ADD DUP8 PUSH20 0xFFFFFFFFFFFFFFFFFFFFFFFFFFFFFFFFFFFFFFFF AND DUP2 MSTORE PUSH1 0x20 ADD DUP7 DUP2 MSTORE PUSH1 0x20 ADD DUP6 DUP2 MSTORE PUSH1 0x20 ADD DUP5 DUP5 DUP1 DUP1 PUSH1 0x1F ADD PUSH1 0x20 DUP1 SWAP2 DIV MUL PUSH1 0x20 ADD PUSH1 0x40 MLOAD SWAP1 DUP2 ADD PUSH1 0x40 MSTORE DUP1 SWAP4 SWAP3 SWAP2 SWAP1 DUP2 DUP2 MSTORE PUSH1 0x20 ADD DUP4 DUP4 DUP1 DUP3 DUP5 CALLDATACOPY PUSH1 0x0 DUP2 DUP5 ADD MSTORE PUSH1 0x1F NOT PUSH1 0x1F DUP3 ADD AND SWAP1 POP DUP1 DUP4 ADD SWAP3 POP POP POP POP POP POP POP DUP2 MSTORE PUSH1 0x20 ADD TIMESTAMP PUSH8 0xFFFFFFFFFFFFFFFF AND DUP2 MSTORE POP PUSH1 0x2 PUSH1 0x0 DUP4 DUP2 MSTORE PUSH1 0x20 ADD SWAP1 DUP2 MSTORE PUSH1 0x20 ADD PUSH1 0x0 KECCAK256 PUSH1 0x0 DUP3 ADD MLOAD DUP2 PUSH1 0x0 ADD SSTORE PUSH1 0x20 DUP3 ADD MLOAD DUP2 PUSH1 0x1 ADD PUSH1 0x0 PUSH2 0x100 EXP DUP2 SLOAD DUP2 PUSH20 0xFFFFFFFFFFFFFFFFFFFFFFFFFFFFFFFFFFFFFFFF MUL NOT AND SWAP1 DUP4 PUSH20 0xFFFFFFFFFFFFFFFFFFFFFFFFFFFFFFFFFFFFFFFF AND MUL OR SWAP1 SSTORE POP PUSH1 0x40 DUP3 ADD MLOAD DUP2 PUSH1 0x2 ADD PUSH1 0x0 PUSH2 0x100 EXP DUP2 SLOAD DUP2 PUSH20 0xFFFFFFFFFFFFFFFFFFFFFFFFFFFFFFFFFFFFFFFF MUL NOT AND SWAP1 DUP4 PUSH20 0xFFFFFFFFFFFFFFFFFFFFFFFFFFFFFFFFFFFFFFFF AND MUL OR SWAP1 SSTORE POP PUSH1 0x60 DUP3 ADD MLOAD DUP2 PUSH1 0x3 ADD SSTORE PUSH1 0x80 DUP3 ADD MLOAD DUP2 PUSH1 0x4 ADD PUSH1 0x0 PUSH2 0x100 EXP DUP2 SLOAD DUP2 PUSH20 0xFFFFFFFFFFFFFFFFFFFFFFFFFFFFFFFFFFFFFFFF MUL NOT AND SWAP1 DUP4 PUSH20 0xFFFFFFFFFFFFFFFFFFFFFFFFFFFFFFFFFFFFFFFF AND MUL OR SWAP1 SSTORE POP PUSH1 0xA0 DUP3 ADD MLOAD DUP2 PUSH1 0x5 ADD SSTORE PUSH1 0xC0 DUP3 ADD MLOAD DUP2 PUSH1 0x6 ADD SSTORE PUSH1 0xE0 DUP3 ADD MLOAD DUP2 PUSH1 0x7 ADD SWAP1 DUP2 PUSH2 0x5DB SWAP2 SWAP1 PUSH2 0xE94 JUMP JUMPDEST POP PUSH2 0x100 DUP3 ADD MLOAD DUP2 PUSH1 0x8 ADD PUSH1 0x0 PUSH2 0x100 EXP DUP2 SLOAD DUP2 PUSH8 0xFFFFFFFFFFFFFFFF MUL NOT AND SWAP1 DUP4 PUSH8 0xFFFFFFFFFFFFFFFF AND MUL OR SWAP1 SSTORE POP SWAP1 POP POP CALLER PUSH20 0xFFFFFFFFFFFFFFFFFFFFFFFFFFFFFFFFFFFFFFFF AND DUP10 DUP3 PUSH32 0xC8DCB7E50D731E58FD9D1007C35E31EB19A616A57DC2DAB21E096E7E9DB24616 DUP12 DUP12 DUP12 DUP12 DUP12 DUP12 DUP12 TIMESTAMP PUSH1 0x40 MLOAD PUSH2 0x665 SWAP9 SWAP8 SWAP7 SWAP6 SWAP5 SWAP4 SWAP3 SWAP2 SWAP1 PUSH2 0xFA2 JUMP JUMPDEST PUSH1 0x40 MLOAD DUP1 SWAP2 SUB SWAP1 LOG4 SWAP9 SWAP8 POP POP POP POP POP POP POP POP JUMP JUMPDEST PUSH1 0x1 SLOAD DUP2 JUMP JUMPDEST PUSH1 0x0 PUSH20 0xFFFFFFFFFFFFFFFFFFFFFFFFFFFFFFFFFFFFFFFF DUP3 AND SWAP1 POP SWAP2 SWAP1 POP JUMP JUMPDEST PUSH1 0x0 DUP2 SWAP1 POP SWAP2 SWAP1 POP JUMP JUMPDEST PUSH1 0x0 PUSH2 0x6C4 PUSH2 0x6BF PUSH2 0x6BA DUP5 PUSH2 0x67F JUMP JUMPDEST PUSH2 0x69F JUMP JUMPDEST PUSH2 0x67F JUMP JUMPDEST SWAP1 POP SWAP2 SWAP1 POP JUMP JUMPDEST PUSH1 0x0 PUSH2 0x6D6 DUP3 PUSH2 0x6A9 JUMP JUMPDEST SWAP1 POP SWAP2 SWAP1 POP JUMP JUMPDEST PUSH1 0x0 PUSH2 0x6E8 DUP3 PUSH2 0x6CB JUMP JUMPDEST SWAP1 POP SWAP2 SWAP1 POP JUMP JUMPDEST PUSH2 0x6F8 DUP2 PUSH2 0x6DD JUMP JUMPDEST DUP3 MSTORE POP POP JUMP JUMPDEST PUSH1 0x0 PUSH1 0x20 DUP3 ADD SWAP1 POP PUSH2 0x713 PUSH1 0x0 DUP4 ADD DUP5 PUSH2 0x6EF JUMP JUMPDEST SWAP3 SWAP2 POP POP JUMP JUMPDEST PUSH1 0x0 DUP1 REVERT JUMPDEST PUSH1 0x0 DUP1 REVERT JUMPDEST PUSH1 0x0 DUP2 SWAP1 POP SWAP2 SWAP1 POP JUMP JUMPDEST PUSH2 0x736 DUP2 PUSH2 0x723 JUMP JUMPDEST DUP2 EQ PUSH2 0x741 JUMPI PUSH1 0x0 DUP1 REVERT JUMPDEST POP JUMP JUMPDEST PUSH1 0x0 DUP2 CALLDATALOAD SWAP1 POP PUSH2 0x753 DUP2 PUSH2 0x72D JUMP JUMPDEST SWAP3 SWAP2 POP POP JUMP JUMPDEST PUSH1 0x0 PUSH1 0x20 DUP3 DUP5 SUB SLT ISZERO PUSH2 0x76F JUMPI PUSH2 0x76E PUSH2 0x719 JUMP JUMPDEST JUMPDEST PUSH1 0x0 PUSH2 0x77D DUP5 DUP3 DUP6 ADD PUSH2 0x744 JUMP JUMPDEST SWAP2 POP POP SWAP3 SWAP2 POP POP JUMP JUMPDEST PUSH2 0x78F DUP2 PUSH2 0x723 JUMP JUMPDEST DUP3 MSTORE POP POP JUMP JUMPDEST PUSH1 0x0 PUSH2 0x7A0 DUP3 PUSH2 0x67F JUMP JUMPDEST SWAP1 POP SWAP2 SWAP1 POP JUMP JUMPDEST PUSH2 0x7B0 DUP2 PUSH2 0x795 JUMP JUMPDEST DUP3 MSTORE POP POP JUMP JUMPDEST PUSH1 0x0 DUP2 SWAP1 POP SWAP2 SWAP1 POP JUMP JUMPDEST PUSH2 0x7C9 DUP2 PUSH2 0x7B6 JUMP JUMPDEST DUP3 MSTORE POP POP JUMP JUMPDEST PUSH1 0x0 DUP2 MLOAD SWAP1 POP SWAP2 SWAP1 POP JUMP JUMPDEST PUSH1 0x0 DUP3 DUP3 MSTORE PUSH1 0x20 DUP3 ADD SWAP1 POP SWAP3 SWAP2 POP POP JUMP JUMPDEST PUSH1 0x0 JUMPDEST DUP4 DUP2 LT ISZERO PUSH2 0x809 JUMPI DUP1 DUP3 ADD MLOAD DUP2 DUP5 ADD MSTORE PUSH1 0x20 DUP2 ADD SWAP1 POP PUSH2 0x7EE JUMP JUMPDEST PUSH1 0x0 DUP5 DUP5 ADD MSTORE POP POP POP POP JUMP JUMPDEST PUSH1 0x0 PUSH1 0x1F NOT PUSH1 0x1F DUP4 ADD AND SWAP1 POP SWAP2 SWAP1 POP JUMP JUMPDEST PUSH1 0x0 PUSH2 0x831 DUP3 PUSH2 0x7CF JUMP JUMPDEST PUSH2 0x83B DUP2 DUP6 PUSH2 0x7DA JUMP JUMPDEST SWAP4 POP PUSH2 0x84B DUP2 DUP6 PUSH1 0x20 DUP7 ADD PUSH2 0x7EB JUMP JUMPDEST PUSH2 0x854 DUP2 PUSH2 0x815 JUMP JUMPDEST DUP5 ADD SWAP2 POP POP SWAP3 SWAP2 POP POP JUMP JUMPDEST PUSH1 0x0 PUSH8 0xFFFFFFFFFFFFFFFF DUP3 AND SWAP1 POP SWAP2 SWAP1 POP JUMP JUMPDEST PUSH2 0x87C DUP2 PUSH2 0x85F JUMP JUMPDEST DUP3 MSTORE POP POP JUMP JUMPDEST PUSH1 0x0 PUSH2 0x120 DUP3 ADD SWAP1 POP PUSH2 0x898 PUSH1 0x0 DUP4 ADD DUP13 PUSH2 0x786 JUMP JUMPDEST PUSH2 0x8A5 PUSH1 0x20 DUP4 ADD DUP12 PUSH2 0x7A7 JUMP JUMPDEST PUSH2 0x8B2 PUSH1 0x40 DUP4 ADD DUP11 PUSH2 0x7A7 JUMP JUMPDEST PUSH2 0x8BF PUSH1 0x60 DUP4 ADD DUP10 PUSH2 0x786 JUMP JUMPDEST PUSH2 0x8CC PUSH1 0x80 DUP4 ADD DUP9 PUSH2 0x7A7 JUMP JUMPDEST PUSH2 0x8D9 PUSH1 0xA0 DUP4 ADD DUP8 PUSH2 0x786 JUMP JUMPDEST PUSH2 0x8E6 PUSH1 0xC0 DUP4 ADD DUP7 PUSH2 0x7C0 JUMP JUMPDEST DUP2 DUP2 SUB PUSH1 0xE0 DUP4 ADD MSTORE PUSH2 0x8F8 DUP2 DUP6 PUSH2 0x826 JUMP JUMPDEST SWAP1 POP PUSH2 0x908 PUSH2 0x100 DUP4 ADD DUP5 PUSH2 0x873 JUMP JUMPDEST SWAP11 SWAP10 POP POP POP POP POP POP POP POP POP POP JUMP JUMPDEST PUSH2 0x91F DUP2 PUSH2 0x795 JUMP JUMPDEST DUP2 EQ PUSH2 0x92A JUMPI PUSH1 0x0 DUP1 REVERT JUMPDEST POP JUMP JUMPDEST PUSH1 0x0 DUP2 CALLDATALOAD SWAP1 POP PUSH2 0x93C DUP2 PUSH2 0x916 JUMP JUMPDEST SWAP3 SWAP2 POP POP JUMP JUMPDEST PUSH2 0x94B DUP2 PUSH2 0x7B6 JUMP JUMPDEST DUP2 EQ PUSH2 0x956 JUMPI PUSH1 0x0 DUP1 REVERT JUMPDEST POP JUMP JUMPDEST PUSH1 0x0 DUP2 CALLDATALOAD SWAP1 POP PUSH2 0x968 DUP2 PUSH2 0x942 JUMP JUMPDEST SWAP3 SWAP2 POP POP JUMP JUMPDEST PUSH1 0x0 DUP1 REVERT JUMPDEST PUSH1 0x0 DUP1 REVERT JUMPDEST PUSH1 0x0 DUP1 REVERT JUMPDEST PUSH1 0x0 DUP1 DUP4 PUSH1 0x1F DUP5 ADD SLT PUSH2 0x993 JUMPI PUSH2 0x992 PUSH2 0x96E JUMP JUMPDEST JUMPDEST DUP3 CALLDATALOAD SWAP1 POP PUSH8 0xFFFFFFFFFFFFFFFF DUP2 GT ISZERO PUSH2 0x9B0 JUMPI PUSH2 0x9AF PUSH2 0x973 JUMP JUMPDEST JUMPDEST PUSH1 0x20 DUP4 ADD SWAP2 POP DUP4 PUSH1 0x1 DUP3 MUL DUP4 ADD GT ISZERO PUSH2 0x9CC JUMPI PUSH2 0x9CB PUSH2 0x978 JUMP JUMPDEST JUMPDEST SWAP3 POP SWAP3 SWAP1 POP JUMP JUMPDEST PUSH1 0x0 DUP1 PUSH1 0x0 DUP1 PUSH1 0x0 DUP1 PUSH1 0x0 DUP1 PUSH1 0xE0 DUP10 DUP12 SUB SLT ISZERO PUSH2 0x9F3 JUMPI PUSH2 0x9F2 PUSH2 0x719 JUMP JUMPDEST JUMPDEST PUSH1 0x0 PUSH2 0xA01 DUP12 DUP3 DUP13 ADD PUSH2 0x744 JUMP JUMPDEST SWAP9 POP POP PUSH1 0x20 PUSH2 0xA12 DUP12 DUP3 DUP13 ADD PUSH2 0x92D JUMP JUMPDEST SWAP8 POP POP PUSH1 0x40 PUSH2 0xA23 DUP12 DUP3 DUP13 ADD PUSH2 0x744 JUMP JUMPDEST SWAP7 POP POP PUSH1 0x60 PUSH2 0xA34 DUP12 DUP3 DUP13 ADD PUSH2 0x92D JUMP JUMPDEST SWAP6 POP POP PUSH1 0x80 PUSH2 0xA45 DUP12 DUP3 DUP13 ADD PUSH2 0x744 JUMP JUMPDEST SWAP5 POP POP PUSH1 0xA0 PUSH2 0xA56 DUP12 DUP3 DUP13 ADD PUSH2 0x959 JUMP JUMPDEST SWAP4 POP POP PUSH1 0xC0 DUP10 ADD CALLDATALOAD PUSH8 0xFFFFFFFFFFFFFFFF DUP2 GT ISZERO PUSH2 0xA77 JUMPI PUSH2 0xA76 PUSH2 0x71E JUMP JUMPDEST JUMPDEST PUSH2 0xA83 DUP12 DUP3 DUP13 ADD PUSH2 0x97D JUMP JUMPDEST SWAP3 POP SWAP3 POP POP SWAP3 SWAP6 SWAP9 POP SWAP3 SWAP6 SWAP9 SWAP1 SWAP4 SWAP7 POP JUMP JUMPDEST PUSH1 0x0 PUSH1 0x20 DUP3 ADD SWAP1 POP PUSH2 0xAAA PUSH1 0x0 DUP4 ADD DUP5 PUSH2 0x786 JUMP JUMPDEST SWAP3 SWAP2 POP POP JUMP JUMPDEST PUSH32 0x4E487B7100000000000000000000000000000000000000000000000000000000 PUSH1 0x0 MSTORE PUSH1 0x22 PUSH1 0x4 MSTORE PUSH1 0x24 PUSH1 0x0 REVERT JUMPDEST PUSH1 0x0 PUSH1 0x2 DUP3 DIV SWAP1 POP PUSH1 0x1 DUP3 AND DUP1 PUSH2 0xAF7 JUMPI PUSH1 0x7F DUP3 AND SWAP2 POP JUMPDEST PUSH1 0x20 DUP3 LT DUP2 SUB PUSH2 0xB0A JUMPI PUSH2 0xB09 PUSH2 0xAB0 JUMP JUMPDEST JUMPDEST POP SWAP2 SWAP1 POP JUMP JUMPDEST PUSH1 0x0 DUP2 MLOAD SWAP1 POP PUSH2 0xB1F DUP2 PUSH2 0x942 JUMP JUMPDEST SWAP3 SWAP2 POP POP JUMP JUMPDEST PUSH1 0x0 PUSH1 0x20 DUP3 DUP5 SUB SLT ISZERO PUSH2 0xB3B JUMPI PUSH2 0xB3A PUSH2 0x719 JUMP JUMPDEST JUMPDEST PUSH1 0x0 PUSH2 0xB49 DUP5 DUP3 DUP6 ADD PUSH2 0xB10 JUMP JUMPDEST SWAP2 POP POP SWAP3 SWAP2 POP POP JUMP JUMPDEST PUSH1 0x0 PUSH1 0x40 DUP3 ADD SWAP1 POP PUSH2 0xB67 PUSH1 0x0 DUP4 ADD DUP6 PUSH2 0x7C0 JUMP JUMPDEST PUSH2 0xB74 PUSH1 0x20 DUP4 ADD DUP5 PUSH2 0x7A7 JUMP JUMPDEST SWAP4 SWAP3 POP POP POP JUMP JUMPDEST PUSH1 0x0 DUP2 ISZERO ISZERO SWAP1 POP SWAP2 SWAP1 POP JUMP JUMPDEST PUSH2 0xB90 DUP2 PUSH2 0xB7B JUMP JUMPDEST DUP2 EQ PUSH2 0xB9B JUMPI PUSH1 0x0 DUP1 REVERT JUMPDEST POP JUMP JUMPDEST PUSH1 0x0 DUP2 MLOAD SWAP1 POP PUSH2 0xBAD DUP2 PUSH2 0xB87 JUMP JUMPDEST SWAP3 SWAP2 POP POP JUMP JUMPDEST PUSH1 0x0 PUSH1 0x20 DUP3 DUP5 SUB SLT ISZERO PUSH2 0xBC9 JUMPI PUSH2 0xBC8 PUSH2 0x719 JUMP JUMPDEST JUMPDEST PUSH1 0x0 PUSH2 0xBD7 DUP5 DUP3 DUP6 ADD PUSH2 0xB9E JUMP JUMPDEST SWAP2 POP POP SWAP3 SWAP2 POP POP JUMP JUMPDEST PUSH32 0x4E4F545F434C5542000000000000000000000000000000000000000000000000 PUSH1 0x0 DUP3 ADD MSTORE POP JUMP JUMPDEST PUSH1 0x0 PUSH2 0xC16 PUSH1 0x8 DUP4 PUSH2 0x7DA JUMP JUMPDEST SWAP2 POP PUSH2 0xC21 DUP3 PUSH2 0xBE0 JUMP JUMPDEST PUSH1 0x20 DUP3 ADD SWAP1 POP SWAP2 SWAP1 POP JUMP JUMPDEST PUSH1 0x0 PUSH1 0x20 DUP3 ADD SWAP1 POP DUP2 DUP2 SUB PUSH1 0x0 DUP4 ADD MSTORE PUSH2 0xC45 DUP2 PUSH2 0xC09 JUMP JUMPDEST SWAP1 POP SWAP2 SWAP1 POP JUMP JUMPDEST PUSH32 0x4E487B7100000000000000000000000000000000000000000000000000000000 PUSH1 0x0 MSTORE PUSH1 0x11 PUSH1 0x4 MSTORE PUSH1 0x24 PUSH1 0x0 REVERT JUMPDEST PUSH1 0x0 PUSH2 0xC86 DUP3 PUSH2 0x723 JUMP JUMPDEST SWAP2 POP PUSH32 0xFFFFFFFFFFFFFFFFFFFFFFFFFFFFFFFFFFFFFFFFFFFFFFFFFFFFFFFFFFFFFFFF DUP3 SUB PUSH2 0xCB8 JUMPI PUSH2 0xCB7 PUSH2 0xC4C JUMP JUMPDEST JUMPDEST PUSH1 0x1 DUP3 ADD SWAP1 POP SWAP2 SWAP1 POP JUMP JUMPDEST PUSH32 0x4E487B7100000000000000000000000000000000000000000000000000000000 PUSH1 0x0 MSTORE PUSH1 0x41 PUSH1 0x4 MSTORE PUSH1 0x24 PUSH1 0x0 REVERT JUMPDEST PUSH1 0x0 DUP2 SWAP1 POP DUP2 PUSH1 0x0 MSTORE PUSH1 0x20 PUSH1 0x0 KECCAK256 SWAP1 POP SWAP2 SWAP1 POP JUMP JUMPDEST PUSH1 0x0 PUSH1 0x20 PUSH1 0x1F DUP4 ADD DIV SWAP1 POP SWAP2 SWAP1 POP JUMP JUMPDEST PUSH1 0x0 DUP3 DUP3 SHL SWAP1 POP SWAP3 SWAP2 POP POP JUMP JUMPDEST PUSH1 0x0 PUSH1 0x8 DUP4 MUL PUSH2 0xD54 PUSH32 0xFFFFFFFFFFFFFFFFFFFFFFFFFFFFFFFFFFFFFFFFFFFFFFFFFFFFFFFFFFFFFFFF DUP3 PUSH2 0xD17 JUMP JUMPDEST PUSH2 0xD5E DUP7 DUP4 PUSH2 0xD17 JUMP JUMPDEST SWAP6 POP DUP1 NOT DUP5 AND SWAP4 POP DUP1 DUP7 AND DUP5 OR SWAP3 POP POP POP SWAP4 SWAP3 POP POP POP JUMP JUMPDEST PUSH1 0x0 PUSH2 0xD91 PUSH2 0xD8C PUSH2 0xD87 DUP5 PUSH2 0x723 JUMP JUMPDEST PUSH2 0x69F JUMP JUMPDEST PUSH2 0x723 JUMP JUMPDEST SWAP1 POP SWAP2 SWAP1 POP JUMP JUMPDEST PUSH1 0x0 DUP2 SWAP1 POP SWAP2 SWAP1 POP JUMP JUMPDEST PUSH2 0xDAB DUP4 PUSH2 0xD76 JUMP JUMPDEST PUSH2 0xDBF PUSH2 0xDB7 DUP3 PUSH2 0xD98 JUMP JUMPDEST DUP5 DUP5 SLOAD PUSH2 0xD24 JUMP JUMPDEST DUP3 SSTORE POP POP POP POP JUMP JUMPDEST PUSH1 0x0 SWAP1 JUMP JUMPDEST PUSH2 0xDD4 PUSH2 0xDC7 JUMP JUMPDEST PUSH2 0xDDF DUP2 DUP5 DUP5 PUSH2 0xDA2 JUMP JUMPDEST POP POP POP JUMP JUMPDEST JUMPDEST DUP2 DUP2 LT ISZERO PUSH2 0xE03 JUMPI PUSH2 0xDF8 PUSH1 0x0 DUP3 PUSH2 0xDCC JUMP JUMPDEST PUSH1 0x1 DUP2 ADD SWAP1 POP PUSH2 0xDE5 JUMP JUMPDEST POP POP JUMP JUMPDEST PUSH1 0x1F DUP3 GT ISZERO PUSH2 0xE48 JUMPI PUSH2 0xE19 DUP2 PUSH2 0xCF2 JUMP JUMPDEST PUSH2 0xE22 DUP5 PUSH2 0xD07 JUMP JUMPDEST DUP2 ADD PUSH1 0x20 DUP6 LT ISZERO PUSH2 0xE31 JUMPI DUP2 SWAP1 POP JUMPDEST PUSH2 0xE45 PUSH2 0xE3D DUP6 PUSH2 0xD07 JUMP JUMPDEST DUP4 ADD DUP3 PUSH2 0xDE4 JUMP JUMPDEST POP POP JUMPDEST POP POP POP JUMP JUMPDEST PUSH1 0x0 DUP3 DUP3 SHR SWAP1 POP SWAP3 SWAP2 POP POP JUMP JUMPDEST PUSH1 0x0 PUSH2 0xE6B PUSH1 0x0 NOT DUP5 PUSH1 0x8 MUL PUSH2 0xE4D JUMP JUMPDEST NOT DUP1 DUP4 AND SWAP2 POP POP SWAP3 SWAP2 POP POP JUMP JUMPDEST PUSH1 0x0 PUSH2 0xE84 DUP4 DUP4 PUSH2 0xE5A JUMP JUMPDEST SWAP2 POP DUP3 PUSH1 0x2 MUL DUP3 OR SWAP1 POP SWAP3 SWAP2 POP POP JUMP JUMPDEST PUSH2 0xE9D DUP3 PUSH2 0x7CF JUMP JUMPDEST PUSH8 0xFFFFFFFFFFFFFFFF DUP2 GT ISZERO PUSH2 0xEB6 JUMPI PUSH2 0xEB5 PUSH2 0xCC3 JUMP JUMPDEST JUMPDEST PUSH2 0xEC0 DUP3 SLOAD PUSH2 0xADF JUMP JUMPDEST PUSH2 0xECB DUP3 DUP3 DUP6 PUSH2 0xE07 JUMP JUMPDEST PUSH1 0x0 PUSH1 0x20 SWAP1 POP PUSH1 0x1F DUP4 GT PUSH1 0x1 DUP2 EQ PUSH2 0xEFE JUMPI PUSH1 0x0 DUP5 ISZERO PUSH2 0xEEC JUMPI DUP3 DUP8 ADD MLOAD SWAP1 POP JUMPDEST PUSH2 0xEF6 DUP6 DUP3 PUSH2 0xE78 JUMP JUMPDEST DUP7 SSTORE POP PUSH2 0xF5E JUMP JUMPDEST PUSH1 0x1F NOT DUP5 AND PUSH2 0xF0C DUP7 PUSH2 0xCF2 JUMP JUMPDEST PUSH1 0x0 JUMPDEST DUP3 DUP2 LT ISZERO PUSH2 0xF34 JUMPI DUP5 DUP10 ADD MLOAD DUP3 SSTORE PUSH1 0x1 DUP3 ADD SWAP2 POP PUSH1 0x20 DUP6 ADD SWAP5 POP PUSH1 0x20 DUP2 ADD SWAP1 POP PUSH2 0xF0F JUMP JUMPDEST DUP7 DUP4 LT ISZERO PUSH2 0xF51 JUMPI DUP5 DUP10 ADD MLOAD PUSH2 0xF4D PUSH1 0x1F DUP10 AND DUP3 PUSH2 0xE5A JUMP JUMPDEST DUP4 SSTORE POP JUMPDEST PUSH1 0x1 PUSH1 0x2 DUP9 MUL ADD DUP9 SSTORE POP POP POP JUMPDEST POP POP POP POP POP POP JUMP JUMPDEST DUP3 DUP2 DUP4 CALLDATACOPY PUSH1 0x0 DUP4 DUP4 ADD MSTORE POP POP POP JUMP JUMPDEST PUSH1 0x0 PUSH2 0xF81 DUP4 DUP6 PUSH2 0x7DA JUMP JUMPDEST SWAP4 POP PUSH2 0xF8E DUP4 DUP6 DUP5 PUSH2 0xF66 JUMP JUMPDEST PUSH2 0xF97 DUP4 PUSH2 0x815 JUMP JUMPDEST DUP5 ADD SWAP1 POP SWAP4 SWAP3 POP POP POP JUMP JUMPDEST PUSH1 0x0 PUSH1 0xE0 DUP3 ADD SWAP1 POP PUSH2 0xFB7 PUSH1 0x0 DUP4 ADD DUP12 PUSH2 0x7A7 JUMP JUMPDEST PUSH2 0xFC4 PUSH1 0x20 DUP4 ADD DUP11 PUSH2 0x786 JUMP JUMPDEST PUSH2 0xFD1 PUSH1 0x40 DUP4 ADD DUP10 PUSH2 0x7A7 JUMP JUMPDEST PUSH2 0xFDE PUSH1 0x60 DUP4 ADD DUP9 PUSH2 0x786 JUMP JUMPDEST PUSH2 0xFEB PUSH1 0x80 DUP4 ADD DUP8 PUSH2 0x7C0 JUMP JUMPDEST DUP2 DUP2 SUB PUSH1 0xA0 DUP4 ADD MSTORE PUSH2 0xFFE DUP2 DUP6 DUP8 PUSH2 0xF75 JUMP JUMPDEST SWAP1 POP PUSH2 0x100D PUSH1 0xC0 DUP4 ADD DUP5 PUSH2 0x873 JUMP JUMPDEST SWAP10 SWAP9 POP POP POP POP POP POP POP POP POP JUMP INVALID LOG2 PUSH5 0x6970667358 0x22 SLT KECCAK256 0xEC 0xD9 PUSH21 0x5CB978D10455C3B8987B4810878943BBD77219464 POP GAS 0x2E 0x4B RETURN 0x26 PUSH15 0x5B64736F6C634300081C0033000000 "},"methodIdentifiers":{"recordTransfer(uint256,address,uint256,address,uint256,bytes32,string)":"c331a5f0","roles()":"392f5f64","transferCount()":"e3d33fc9","transfers(uint256)":"9377d711"}}}}}