{
  "_format": "hh-sol-artifact-1",
  "contractName": "PrizePool",
  "sourceName": "contracts/PrizePool.sol",
  "abi": [
    {
      "inputs": [
        {
          "internalType": "contract RoleManager",
          "name": "_roles",
          "type": "address"
        }
      ],
      "stateMutability": "nonpayable",
      "type": "constructor"
    },
    {
      "anonymous": false,
      "inputs": [
        {
          "indexed": true,
          "internalType": "uint256",
          "name": "poolId",
          "type": "uint256"
        },
        {
          "indexed": false,
          "internalType": "address",
          "name": "token",
          "type": "address"
        },
        {
          "indexed": false,
          "internalType": "uint256",
          "name": "total",
          "type": "uint256"
        }
      ],
      "name": "PrizePoolCreated",
      "type": "event"
    },
    {
      "anonymous": false,
      "inputs": [
        {
          "indexed": true,
          "internalType": "uint256",
          "name": "poolId",
          "type": "uint256"
        },
        {
          "indexed": true,
          "internalType": "address",
          "name": "to",
          "type": "address"
        },
        {
          "indexed": false,
          "internalType": "uint256",
          "name": "amount",
          "type": "uint256"
        }
      ],
      "name": "PrizeReleased",
      "type": "event"
    },
    {
      "anonymous": false,
      "inputs": [
        {
          "indexed": true,
          "internalType": "uint256",
          "name": "poolId",
          "type": "uint256"
        }
      ],
      "name": "ResultsVerified",
      "type": "event"
    },
    {
      "inputs": [
        {
          "internalType": "address",
          "name": "token",
          "type": "address"
        },
        {
          "internalType": "uint256",
          "name": "amount",
          "type": "uint256"
        }
      ],
      "name": "createPool",
      "outputs": [
        {
          "internalType": "uint256",
          "name": "id",
          "type": "uint256"
        }
      ],
      "stateMutability": "nonpayable",
      "type": "function"
    },
    {
      "inputs": [],
      "name": "poolCount",
      "outputs": [
        {
          "internalType": "uint256",
          "name": "",
          "type": "uint256"
        }
      ],
      "stateMutability": "view",
      "type": "function"
    },
    {
      "inputs": [
        {
          "internalType": "uint256",
          "name": "",
          "type": "uint256"
        }
      ],
      "name": "pools",
      "outputs": [
        {
          "internalType": "address",
          "name": "token",
          "type": "address"
        },
        {
          "internalType": "uint256",
          "name": "total",
          "type": "uint256"
        },
        {
          "internalType": "bool",
          "name": "verified",
          "type": "bool"
        },
        {
          "internalType": "address",
          "name": "creator",
          "type": "address"
        }
      ],
      "stateMutability": "view",
      "type": "function"
    },
    {
      "inputs": [
        {
          "internalType": "uint256",
          "name": "poolId",
          "type": "uint256"
        },
        {
          "internalType": "address[]",
          "name": "winners",
          "type": "address[]"
        },
        {
          "internalType": "uint256[]",
          "name": "amounts",
          "type": "uint256[]"
        }
      ],
      "name": "release",
      "outputs": [],
      "stateMutability": "nonpayable",
      "type": "function"
    },
    {
      "inputs": [],
      "name": "roles",
      "outputs": [
        {
          "internalType": "contract RoleManager",
          "name": "",
          "type": "address"
        }
      ],
      "stateMutability": "view",
      "type": "function"
    },
    {
      "inputs": [
        {
          "internalType": "uint256",
          "name": "poolId",
          "type": "uint256"
        }
      ],
      "name": "verifyResults",
      "outputs": [],
      "stateMutability": "nonpayable",
      "type": "function"
    }
  ],
  "bytecode": "0x608060405234801561001057600080fd5b5060405161146d38038061146d833981810160405281019061003291906100ed565b806000806101000a81548173ffffffffffffffffffffffffffffffffffffffff021916908373ffffffffffffffffffffffffffffffffffffffff1602179055505061011a565b600080fd5b600073ffffffffffffffffffffffffffffffffffffffff82169050919050565b60006100a88261007d565b9050919050565b60006100ba8261009d565b9050919050565b6100ca816100af565b81146100d557600080fd5b50565b6000815190506100e7816100c1565b92915050565b60006020828403121561010357610102610078565b5b6000610111848285016100d8565b91505092915050565b611344806101296000396000f3fe608060405234801561001057600080fd5b50600436106100625760003560e01c806312d3617114610067578063263bab5314610097578063392f5f64146100b35780634c1238bf146100d1578063ac4afa38146100ed578063f525cb6814610120575b600080fd5b610081600480360381019061007c9190610bea565b61013e565b60405161008e9190610c39565b60405180910390f35b6100b160048036038101906100ac9190610c54565b6104de565b005b6100bb6106a6565b6040516100c89190610ce0565b60405180910390f35b6100eb60048036038101906100e69190610db6565b6106ca565b005b61010760048036038101906101029190610c54565b610ac9565b6040516101179493929190610e75565b60405180910390f35b610128610b46565b6040516101359190610c39565b60405180910390f35b60008060009054906101000a900473ffffffffffffffffffffffffffffffffffffffff1673ffffffffffffffffffffffffffffffffffffffff166391d1485460008054906101000a900473ffffffffffffffffffffffffffffffffffffffff1673ffffffffffffffffffffffffffffffffffffffff166375b238fc6040518163ffffffff1660e01b8152600401602060405180830381865afa1580156101e8573d6000803e3d6000fd5b505050506040513d601f19601f8201168201806040525081019061020c9190610ef0565b336040518363ffffffff1660e01b815260040161022a929190610f2c565b602060405180830381865afa158015610247573d6000803e3d6000fd5b505050506040513d601f19601f8201168201806040525081019061026b9190610f81565b6102aa576040517f08c379a00000000000000000000000000000000000000000000000000000000081526004016102a19061100b565b60405180910390fd5b6001600081546102b99061105a565b919050819055905060405180608001604052808473ffffffffffffffffffffffffffffffffffffffff1681526020018381526020016000151581526020013373ffffffffffffffffffffffffffffffffffffffff168152506002600083815260200190815260200160002060008201518160000160006101000a81548173ffffffffffffffffffffffffffffffffffffffff021916908373ffffffffffffffffffffffffffffffffffffffff1602179055506020820151816001015560408201518160020160006101000a81548160ff02191690831515021790555060608201518160020160016101000a81548173ffffffffffffffffffffffffffffffffffffffff021916908373ffffffffffffffffffffffffffffffffffffffff1602179055509050508273ffffffffffffffffffffffffffffffffffffffff166323b872dd3330856040518463ffffffff1660e01b815260040161041c939291906110a2565b6020604051808303816000875af115801561043b573d6000803e3d6000fd5b505050506040513d601f19601f8201168201806040525081019061045f9190610f81565b61049e576040517f08c379a000000000000000000000000000000000000000000000000000000000815260040161049590611125565b60405180910390fd5b807f8e6aee01c9edef2ca60c96e104f6cf6c1f2509907504078ca4223716c0c869ea84846040516104d0929190611145565b60405180910390a292915050565b60008054906101000a900473ffffffffffffffffffffffffffffffffffffffff1673ffffffffffffffffffffffffffffffffffffffff166391d1485460008054906101000a900473ffffffffffffffffffffffffffffffffffffffff1673ffffffffffffffffffffffffffffffffffffffff166375b238fc6040518163ffffffff1660e01b8152600401602060405180830381865afa158015610585573d6000803e3d6000fd5b505050506040513d601f19601f820116820180604052508101906105a99190610ef0565b336040518363ffffffff1660e01b81526004016105c7929190610f2c565b602060405180830381865afa1580156105e4573d6000803e3d6000fd5b505050506040513d601f19601f820116820180604052508101906106089190610f81565b610647576040517f08c379a000000000000000000000000000000000000000000000000000000000815260040161063e9061100b565b60405180910390fd5b60016002600083815260200190815260200160002060020160006101000a81548160ff021916908315150217905550807ffb4b313f03ff30f09fd52e536c9d702bc07036569b3929ff014cc3ccc3a6955160405160405180910390a250565b60008054906101000a900473ffffffffffffffffffffffffffffffffffffffff1681565b60008054906101000a900473ffffffffffffffffffffffffffffffffffffffff1673ffffffffffffffffffffffffffffffffffffffff166391d1485460008054906101000a900473ffffffffffffffffffffffffffffffffffffffff1673ffffffffffffffffffffffffffffffffffffffff166375b238fc6040518163ffffffff1660e01b8152600401602060405180830381865afa158015610771573d6000803e3d6000fd5b505050506040513d601f19601f820116820180604052508101906107959190610ef0565b336040518363ffffffff1660e01b81526004016107b3929190610f2c565b602060405180830381865afa1580156107d0573d6000803e3d6000fd5b505050506040513d601f19601f820116820180604052508101906107f49190610f81565b610833576040517f08c379a000000000000000000000000000000000000000000000000000000000815260040161082a9061100b565b60405180910390fd5b6002600086815260200190815260200160002060020160009054906101000a900460ff16610896576040517f08c379a000000000000000000000000000000000000000000000000000000000815260040161088d906111ba565b60405180910390fd5b8181905084849050146108de576040517f08c379a00000000000000000000000000000000000000000000000000000000081526004016108d590611226565b60405180910390fd5b60006002600087815260200190815260200160002060000160009054906101000a900473ffffffffffffffffffffffffffffffffffffffff16905060005b85859050811015610ac0578173ffffffffffffffffffffffffffffffffffffffff1663a9059cbb87878481811061095657610955611246565b5b905060200201602081019061096b9190611275565b86868581811061097e5761097d611246565b5b905060200201356040518363ffffffff1660e01b81526004016109a2929190611145565b6020604051808303816000875af11580156109c1573d6000803e3d6000fd5b505050506040513d601f19601f820116820180604052508101906109e59190610f81565b610a24576040517f08c379a0000000000000000000000000000000000000000000000000000000008152600401610a1b906112ee565b60405180910390fd5b858582818110610a3757610a36611246565b5b9050602002016020810190610a4c9190611275565b73ffffffffffffffffffffffffffffffffffffffff16877febf067c8fb744ed521ffe99e7db1a9b9ef9e497d9d121a5e9cb48d3673c88a58868685818110610a9757610a96611246565b5b90506020020135604051610aab9190610c39565b60405180910390a3808060010191505061091c565b50505050505050565b60026020528060005260406000206000915090508060000160009054906101000a900473ffffffffffffffffffffffffffffffffffffffff16908060010154908060020160009054906101000a900460ff16908060020160019054906101000a900473ffffffffffffffffffffffffffffffffffffffff16905084565b60015481565b600080fd5b600080fd5b600073ffffffffffffffffffffffffffffffffffffffff82169050919050565b6000610b8182610b56565b9050919050565b610b9181610b76565b8114610b9c57600080fd5b50565b600081359050610bae81610b88565b92915050565b6000819050919050565b610bc781610bb4565b8114610bd257600080fd5b50565b600081359050610be481610bbe565b92915050565b60008060408385031215610c0157610c00610b4c565b5b6000610c0f85828601610b9f565b9250506020610c2085828601610bd5565b9150509250929050565b610c3381610bb4565b82525050565b6000602082019050610c4e6000830184610c2a565b92915050565b600060208284031215610c6a57610c69610b4c565b5b6000610c7884828501610bd5565b91505092915050565b6000819050919050565b6000610ca6610ca1610c9c84610b56565b610c81565b610b56565b9050919050565b6000610cb882610c8b565b9050919050565b6000610cca82610cad565b9050919050565b610cda81610cbf565b82525050565b6000602082019050610cf56000830184610cd1565b92915050565b600080fd5b600080fd5b600080fd5b60008083601f840112610d2057610d1f610cfb565b5b8235905067ffffffffffffffff811115610d3d57610d3c610d00565b5b602083019150836020820283011115610d5957610d58610d05565b5b9250929050565b60008083601f840112610d7657610d75610cfb565b5b8235905067ffffffffffffffff811115610d9357610d92610d00565b5b602083019150836020820283011115610daf57610dae610d05565b5b9250929050565b600080600080600060608688031215610dd257610dd1610b4c565b5b6000610de088828901610bd5565b955050602086013567ffffffffffffffff811115610e0157610e00610b51565b5b610e0d88828901610d0a565b9450945050604086013567ffffffffffffffff811115610e3057610e2f610b51565b5b610e3c88828901610d60565b92509250509295509295909350565b610e5481610b76565b82525050565b60008115159050919050565b610e6f81610e5a565b82525050565b6000608082019050610e8a6000830187610e4b565b610e976020830186610c2a565b610ea46040830185610e66565b610eb16060830184610e4b565b95945050505050565b6000819050919050565b610ecd81610eba565b8114610ed857600080fd5b50565b600081519050610eea81610ec4565b92915050565b600060208284031215610f0657610f05610b4c565b5b6000610f1484828501610edb565b91505092915050565b610f2681610eba565b82525050565b6000604082019050610f416000830185610f1d565b610f4e6020830184610e4b565b9392505050565b610f5e81610e5a565b8114610f6957600080fd5b50565b600081519050610f7b81610f55565b92915050565b600060208284031215610f9757610f96610b4c565b5b6000610fa584828501610f6c565b91505092915050565b600082825260208201905092915050565b7f4e4f545f41444d494e0000000000000000000000000000000000000000000000600082015250565b6000610ff5600983610fae565b915061100082610fbf565b602082019050919050565b6000602082019050818103600083015261102481610fe8565b9050919050565b7f4e487b7100000000000000000000000000000000000000000000000000000000600052601160045260246000fd5b600061106582610bb4565b91507fffffffffffffffffffffffffffffffffffffffffffffffffffffffffffffffff82036110975761109661102b565b5b600182019050919050565b60006060820190506110b76000830186610e4b565b6110c46020830185610e4b565b6110d16040830184610c2a565b949350505050565b7f4445504f5349545f4641494c0000000000000000000000000000000000000000600082015250565b600061110f600c83610fae565b915061111a826110d9565b602082019050919050565b6000602082019050818103600083015261113e81611102565b9050919050565b600060408201905061115a6000830185610e4b565b6111676020830184610c2a565b9392505050565b7f4e4f545f56455249464945440000000000000000000000000000000000000000600082015250565b60006111a4600c83610fae565b91506111af8261116e565b602082019050919050565b600060208201905081810360008301526111d381611197565b9050919050565b7f4c454e5f4d49534d415443480000000000000000000000000000000000000000600082015250565b6000611210600c83610fae565b915061121b826111da565b602082019050919050565b6000602082019050818103600083015261123f81611203565b9050919050565b7f4e487b7100000000000000000000000000000000000000000000000000000000600052603260045260246000fd5b60006020828403121561128b5761128a610b4c565b5b600061129984828501610b9f565b91505092915050565b7f5452414e534645525f4641494c00000000000000000000000000000000000000600082015250565b60006112d8600d83610fae565b91506112e3826112a2565b602082019050919050565b60006020820190508181036000830152611307816112cb565b905091905056fea26469706673582212200ea105fe802da388c92e362e5ff6e1391ead312f6ab4a25cf0d5fa782407278564736f6c634300081c0033",
  "linkReferences": {},
  "deployedLinkReferences": {}
}