{
  "_format": "hh-sol-artifact-1",
  "contractName": "SponsorshipRegistry",
  "sourceName": "contracts/SponsorshipRegistry.sol",
  "abi": [
    {
      "inputs": [
        {
          "internalType": "contract RoleManager",
          "name": "_roles",
          "type": "address"
        }
      ],
      "stateMutability": "nonpayable",
      "type": "constructor"
    },
    {
      "anonymous": false,
      "inputs": [
        {
          "indexed": true,
          "internalType": "uint256",
          "name": "id",
          "type": "uint256"
        },
        {
          "indexed": true,
          "internalType": "address",
          "name": "sponsor",
          "type": "address"
        },
        {
          "indexed": true,
          "internalType": "address",
          "name": "club",
          "type": "address"
        },
        {
          "indexed": false,
          "internalType": "uint256",
          "name": "amountWei",
          "type": "uint256"
        },
        {
          "indexed": false,
          "internalType": "bytes32",
          "name": "docSha256",
          "type": "bytes32"
        },
        {
          "indexed": false,
          "internalType": "string",
          "name": "ipfsCid",
          "type": "string"
        },
        {
          "indexed": false,
          "internalType": "uint64",
          "name": "ts",
          "type": "uint64"
        }
      ],
      "name": "SponsorshipRegistered",
      "type": "event"
    },
    {
      "inputs": [],
      "name": "count",
      "outputs": [
        {
          "internalType": "uint256",
          "name": "",
          "type": "uint256"
        }
      ],
      "stateMutability": "view",
      "type": "function"
    },
    {
      "inputs": [
        {
          "internalType": "uint256",
          "name": "",
          "type": "uint256"
        }
      ],
      "name": "deals",
      "outputs": [
        {
          "internalType": "address",
          "name": "sponsor",
          "type": "address"
        },
        {
          "internalType": "address",
          "name": "club",
          "type": "address"
        },
        {
          "internalType": "uint256",
          "name": "amountWei",
          "type": "uint256"
        },
        {
          "internalType": "bytes32",
          "name": "docSha256",
          "type": "bytes32"
        },
        {
          "internalType": "string",
          "name": "ipfsCid",
          "type": "string"
        },
        {
          "internalType": "uint64",
          "name": "ts",
          "type": "uint64"
        }
      ],
      "stateMutability": "view",
      "type": "function"
    },
    {
      "inputs": [
        {
          "internalType": "address",
          "name": "club",
          "type": "address"
        },
        {
          "internalType": "uint256",
          "name": "amountWei",
          "type": "uint256"
        },
        {
          "internalType": "bytes32",
          "name": "docSha256",
          "type": "bytes32"
        },
        {
          "internalType": "string",
          "name": "ipfsCid",
          "type": "string"
        }
      ],
      "name": "registerDeal",
      "outputs": [
        {
          "internalType": "uint256",
          "name": "id",
          "type": "uint256"
        }
      ],
      "stateMutability": "nonpayable",
      "type": "function"
    },
    {
      "inputs": [],
      "name": "roles",
      "outputs": [
        {
          "internalType": "contract RoleManager",
          "name": "",
          "type": "address"
        }
      ],
      "stateMutability": "view",
      "type": "function"
    }
  ],
  "bytecode": "0x608060405234801561001057600080fd5b5060405161103c38038061103c833981810160405281019061003291906100ed565b806000806101000a81548173ffffffffffffffffffffffffffffffffffffffff021916908373ffffffffffffffffffffffffffffffffffffffff1602179055505061011a565b600080fd5b600073ffffffffffffffffffffffffffffffffffffffff82169050919050565b60006100a88261007d565b9050919050565b60006100ba8261009d565b9050919050565b6100ca816100af565b81146100d557600080fd5b50565b6000815190506100e7816100c1565b92915050565b60006020828403121561010357610102610078565b5b6000610111848285016100d8565b91505092915050565b610f13806101296000396000f3fe608060405234801561001057600080fd5b506004361061004c5760003560e01c806303988f841461005157806306661abd14610086578063392f5f64146100a4578063a6dc0c28146100c2575b600080fd5b61006b60048036038101906100669190610612565b6100f2565b60405161007d9695949392919061075b565b60405180910390f35b61008e61020a565b60405161009b91906107c3565b60405180910390f35b6100ac610210565b6040516100b9919061083d565b60405180910390f35b6100dc60048036038101906100d79190610915565b610234565b6040516100e991906107c3565b60405180910390f35b60026020528060005260406000206000915090508060000160009054906101000a900473ffffffffffffffffffffffffffffffffffffffff16908060010160009054906101000a900473ffffffffffffffffffffffffffffffffffffffff169080600201549080600301549080600401805461016d906109cc565b80601f0160208091040260200160405190810160405280929190818152602001828054610199906109cc565b80156101e65780601f106101bb576101008083540402835291602001916101e6565b820191906000526020600020905b8154815290600101906020018083116101c957829003601f168201915b5050505050908060050160009054906101000a900467ffffffffffffffff16905086565b60015481565b60008054906101000a900473ffffffffffffffffffffffffffffffffffffffff1681565b60008060009054906101000a900473ffffffffffffffffffffffffffffffffffffffff1673ffffffffffffffffffffffffffffffffffffffff166391d1485460008054906101000a900473ffffffffffffffffffffffffffffffffffffffff1673ffffffffffffffffffffffffffffffffffffffff1663c2d794446040518163ffffffff1660e01b8152600401602060405180830381865afa1580156102de573d6000803e3d6000fd5b505050506040513d601f19601f820116820180604052508101906103029190610a12565b336040518363ffffffff1660e01b8152600401610320929190610a3f565b602060405180830381865afa15801561033d573d6000803e3d6000fd5b505050506040513d601f19601f820116820180604052508101906103619190610aa0565b6103a0576040517f08c379a000000000000000000000000000000000000000000000000000000000815260040161039790610b19565b60405180910390fd5b6001600081546103af90610b68565b91905081905590506040518060c001604052803373ffffffffffffffffffffffffffffffffffffffff1681526020018773ffffffffffffffffffffffffffffffffffffffff16815260200186815260200185815260200184848080601f016020809104026020016040519081016040528093929190818152602001838380828437600081840152601f19601f8201169050808301925050505050505081526020014267ffffffffffffffff168152506002600083815260200190815260200160002060008201518160000160006101000a81548173ffffffffffffffffffffffffffffffffffffffff021916908373ffffffffffffffffffffffffffffffffffffffff16021790555060208201518160010160006101000a81548173ffffffffffffffffffffffffffffffffffffffff021916908373ffffffffffffffffffffffffffffffffffffffff160217905550604082015181600201556060820151816003015560808201518160040190816105289190610d81565b5060a08201518160050160006101000a81548167ffffffffffffffff021916908367ffffffffffffffff1602179055509050508573ffffffffffffffffffffffffffffffffffffffff163373ffffffffffffffffffffffffffffffffffffffff16827f30e08af5c98e72a1c43a1094e4e652caf4e7ae01e9b4d6b2cf8112b25491993888888888426040516105c1959493929190610e8f565b60405180910390a495945050505050565b600080fd5b600080fd5b6000819050919050565b6105ef816105dc565b81146105fa57600080fd5b50565b60008135905061060c816105e6565b92915050565b600060208284031215610628576106276105d2565b5b6000610636848285016105fd565b91505092915050565b600073ffffffffffffffffffffffffffffffffffffffff82169050919050565b600061066a8261063f565b9050919050565b61067a8161065f565b82525050565b610689816105dc565b82525050565b6000819050919050565b6106a28161068f565b82525050565b600081519050919050565b600082825260208201905092915050565b60005b838110156106e25780820151818401526020810190506106c7565b60008484015250505050565b6000601f19601f8301169050919050565b600061070a826106a8565b61071481856106b3565b93506107248185602086016106c4565b61072d816106ee565b840191505092915050565b600067ffffffffffffffff82169050919050565b61075581610738565b82525050565b600060c0820190506107706000830189610671565b61077d6020830188610671565b61078a6040830187610680565b6107976060830186610699565b81810360808301526107a981856106ff565b90506107b860a083018461074c565b979650505050505050565b60006020820190506107d86000830184610680565b92915050565b6000819050919050565b60006108036107fe6107f98461063f565b6107de565b61063f565b9050919050565b6000610815826107e8565b9050919050565b60006108278261080a565b9050919050565b6108378161081c565b82525050565b6000602082019050610852600083018461082e565b92915050565b6108618161065f565b811461086c57600080fd5b50565b60008135905061087e81610858565b92915050565b61088d8161068f565b811461089857600080fd5b50565b6000813590506108aa81610884565b92915050565b600080fd5b600080fd5b600080fd5b60008083601f8401126108d5576108d46108b0565b5b8235905067ffffffffffffffff8111156108f2576108f16108b5565b5b60208301915083600182028301111561090e5761090d6108ba565b5b9250929050565b600080600080600060808688031215610931576109306105d2565b5b600061093f8882890161086f565b9550506020610950888289016105fd565b94505060406109618882890161089b565b935050606086013567ffffffffffffffff811115610982576109816105d7565b5b61098e888289016108bf565b92509250509295509295909350565b7f4e487b7100000000000000000000000000000000000000000000000000000000600052602260045260246000fd5b600060028204905060018216806109e457607f821691505b6020821081036109f7576109f661099d565b5b50919050565b600081519050610a0c81610884565b92915050565b600060208284031215610a2857610a276105d2565b5b6000610a36848285016109fd565b91505092915050565b6000604082019050610a546000830185610699565b610a616020830184610671565b9392505050565b60008115159050919050565b610a7d81610a68565b8114610a8857600080fd5b50565b600081519050610a9a81610a74565b92915050565b600060208284031215610ab657610ab56105d2565b5b6000610ac484828501610a8b565b91505092915050565b7f4e4f545f53504f4e534f52000000000000000000000000000000000000000000600082015250565b6000610b03600b836106b3565b9150610b0e82610acd565b602082019050919050565b60006020820190508181036000830152610b3281610af6565b9050919050565b7f4e487b7100000000000000000000000000000000000000000000000000000000600052601160045260246000fd5b6000610b73826105dc565b91507fffffffffffffffffffffffffffffffffffffffffffffffffffffffffffffffff8203610ba557610ba4610b39565b5b600182019050919050565b7f4e487b7100000000000000000000000000000000000000000000000000000000600052604160045260246000fd5b60008190508160005260206000209050919050565b60006020601f8301049050919050565b600082821b905092915050565b600060088302610c417fffffffffffffffffffffffffffffffffffffffffffffffffffffffffffffffff82610c04565b610c4b8683610c04565b95508019841693508086168417925050509392505050565b6000610c7e610c79610c74846105dc565b6107de565b6105dc565b9050919050565b6000819050919050565b610c9883610c63565b610cac610ca482610c85565b848454610c11565b825550505050565b600090565b610cc1610cb4565b610ccc818484610c8f565b505050565b5b81811015610cf057610ce5600082610cb9565b600181019050610cd2565b5050565b601f821115610d3557610d0681610bdf565b610d0f84610bf4565b81016020851015610d1e578190505b610d32610d2a85610bf4565b830182610cd1565b50505b505050565b600082821c905092915050565b6000610d5860001984600802610d3a565b1980831691505092915050565b6000610d718383610d47565b9150826002028217905092915050565b610d8a826106a8565b67ffffffffffffffff811115610da357610da2610bb0565b5b610dad82546109cc565b610db8828285610cf4565b600060209050601f831160018114610deb5760008415610dd9578287015190505b610de38582610d65565b865550610e4b565b601f198416610df986610bdf565b60005b82811015610e2157848901518255600182019150602085019450602081019050610dfc565b86831015610e3e5784890151610e3a601f891682610d47565b8355505b6001600288020188555050505b505050505050565b82818337600083830152505050565b6000610e6e83856106b3565b9350610e7b838584610e53565b610e84836106ee565b840190509392505050565b6000608082019050610ea46000830188610680565b610eb16020830187610699565b8181036040830152610ec4818587610e62565b9050610ed3606083018461074c565b969550505050505056fea2646970667358221220038d0ab4fa343a964c4cad2cf8da6211a67d1dc0c65ce825cd4737ff08beeabf64736f6c634300081c0033",
  "linkReferences": {},
  "deployedLinkReferences": {}
}