{
  "_format": "hh-sol-artifact-1",
  "contractName": "TransferRegistry",
  "sourceName": "contracts/TransferRegistry.sol",
  "abi": [
    {
      "inputs": [
        {
          "internalType": "contract RoleManager",
          "name": "_roles",
          "type": "address"
        }
      ],
      "stateMutability": "nonpayable",
      "type": "constructor"
    },
    {
      "anonymous": false,
      "inputs": [
        {
          "indexed": true,
          "internalType": "uint256",
          "name": "id",
          "type": "uint256"
        },
        {
          "indexed": true,
          "internalType": "uint256",
          "name": "playerId",
          "type": "uint256"
        },
        {
          "indexed": true,
          "internalType": "address",
          "name": "fromClub",
          "type": "address"
        },
        {
          "indexed": false,
          "internalType": "address",
          "name": "toClub",
          "type": "address"
        },
        {
          "indexed": false,
          "internalType": "uint256",
          "name": "feeWei",
          "type": "uint256"
        },
        {
          "indexed": false,
          "internalType": "address",
          "name": "agent",
          "type": "address"
        },
        {
          "indexed": false,
          "internalType": "uint256",
          "name": "agentFeeWei",
          "type": "uint256"
        },
        {
          "indexed": false,
          "internalType": "bytes32",
          "name": "docSha256",
          "type": "bytes32"
        },
        {
          "indexed": false,
          "internalType": "string",
          "name": "ipfsCid",
          "type": "string"
        },
        {
          "indexed": false,
          "internalType": "uint64",
          "name": "ts",
          "type": "uint64"
        }
      ],
      "name": "TransferRecorded",
      "type": "event"
    },
    {
      "inputs": [
        {
          "internalType": "uint256",
          "name": "playerId",
          "type": "uint256"
        },
        {
          "internalType": "address",
          "name": "toClub",
          "type": "address"
        },
        {
          "internalType": "uint256",
          "name": "feeWei",
          "type": "uint256"
        },
        {
          "internalType": "address",
          "name": "agent",
          "type": "address"
        },
        {
          "internalType": "uint256",
          "name": "agentFeeWei",
          "type": "uint256"
        },
        {
          "internalType": "bytes32",
          "name": "docSha256",
          "type": "bytes32"
        },
        {
          "internalType": "string",
          "name": "ipfsCid",
          "type": "string"
        }
      ],
      "name": "recordTransfer",
      "outputs": [
        {
          "internalType": "uint256",
          "name": "id",
          "type": "uint256"
        }
      ],
      "stateMutability": "nonpayable",
      "type": "function"
    },
    {
      "inputs": [],
      "name": "roles",
      "outputs": [
        {
          "internalType": "contract RoleManager",
          "name": "",
          "type": "address"
        }
      ],
      "stateMutability": "view",
      "type": "function"
    },
    {
      "inputs": [],
      "name": "transferCount",
      "outputs": [
        {
          "internalType": "uint256",
          "name": "",
          "type": "uint256"
        }
      ],
      "stateMutability": "view",
      "type": "function"
    },
    {
      "inputs": [
        {
          "internalType": "uint256",
          "name": "",
          "type": "uint256"
        }
      ],
      "name": "transfers",
      "outputs": [
        {
          "internalType": "uint256",
          "name": "playerId",
          "type": "uint256"
        },
        {
          "internalType": "address",
          "name": "fromClub",
          "type": "address"
        },
        {
          "internalType": "address",
          "name": "toClub",
          "type": "address"
        },
        {
          "internalType": "uint256",
          "name": "feeWei",
          "type": "uint256"
        },
        {
          "internalType": "address",
          "name": "agent",
          "type": "address"
        },
        {
          "internalType": "uint256",
          "name": "agentFeeWei",
          "type": "uint256"
        },
        {
          "internalType": "bytes32",
          "name": "docSha256",
          "type": "bytes32"
        },
        {
          "internalType": "string",
          "name": "ipfsCid",
          "type": "string"
        },
        {
          "internalType": "uint64",
          "name": "ts",
          "type": "uint64"
        }
      ],
      "stateMutability": "view",
      "type": "function"
    }
  ],
  "bytecode": "0x608060405234801561001057600080fd5b50604051611179380380611179833981810160405281019061003291906100ed565b806000806101000a81548173ffffffffffffffffffffffffffffffffffffffff021916908373ffffffffffffffffffffffffffffffffffffffff1602179055505061011a565b600080fd5b600073ffffffffffffffffffffffffffffffffffffffff82169050919050565b60006100a88261007d565b9050919050565b60006100ba8261009d565b9050919050565b6100ca816100af565b81146100d557600080fd5b50565b6000815190506100e7816100c1565b92915050565b60006020828403121561010357610102610078565b5b6000610111848285016100d8565b91505092915050565b611050806101296000396000f3fe608060405234801561001057600080fd5b506004361061004c5760003560e01c8063392f5f64146100515780639377d7111461006f578063c331a5f0146100a7578063e3d33fc9146100d7575b600080fd5b6100596100f5565b60405161006691906106fe565b60405180910390f35b61008960048036038101906100849190610759565b610119565b60405161009e99989796959493929190610882565b60405180910390f35b6100c160048036038101906100bc91906109d3565b610263565b6040516100ce9190610a95565b60405180910390f35b6100df610679565b6040516100ec9190610a95565b60405180910390f35b60008054906101000a900473ffffffffffffffffffffffffffffffffffffffff1681565b60026020528060005260406000206000915090508060000154908060010160009054906101000a900473ffffffffffffffffffffffffffffffffffffffff16908060020160009054906101000a900473ffffffffffffffffffffffffffffffffffffffff16908060030154908060040160009054906101000a900473ffffffffffffffffffffffffffffffffffffffff16908060050154908060060154908060070180546101c690610adf565b80601f01602080910402602001604051908101604052809291908181526020018280546101f290610adf565b801561023f5780601f106102145761010080835404028352916020019161023f565b820191906000526020600020905b81548152906001019060200180831161022257829003601f168201915b5050505050908060080160009054906101000a900467ffffffffffffffff16905089565b60008060009054906101000a900473ffffffffffffffffffffffffffffffffffffffff1673ffffffffffffffffffffffffffffffffffffffff166391d1485460008054906101000a900473ffffffffffffffffffffffffffffffffffffffff1673ffffffffffffffffffffffffffffffffffffffff1663fc8045b16040518163ffffffff1660e01b8152600401602060405180830381865afa15801561030d573d6000803e3d6000fd5b505050506040513d601f19601f820116820180604052508101906103319190610b25565b336040518363ffffffff1660e01b815260040161034f929190610b52565b602060405180830381865afa15801561036c573d6000803e3d6000fd5b505050506040513d601f19601f820116820180604052508101906103909190610bb3565b6103cf576040517f08c379a00000000000000000000000000000000000000000000000000000000081526004016103c690610c2c565b60405180910390fd5b6001600081546103de90610c7b565b91905081905590506040518061012001604052808a81526020013373ffffffffffffffffffffffffffffffffffffffff1681526020018973ffffffffffffffffffffffffffffffffffffffff1681526020018881526020018773ffffffffffffffffffffffffffffffffffffffff16815260200186815260200185815260200184848080601f016020809104026020016040519081016040528093929190818152602001838380828437600081840152601f19601f8201169050808301925050505050505081526020014267ffffffffffffffff16815250600260008381526020019081526020016000206000820151816000015560208201518160010160006101000a81548173ffffffffffffffffffffffffffffffffffffffff021916908373ffffffffffffffffffffffffffffffffffffffff16021790555060408201518160020160006101000a81548173ffffffffffffffffffffffffffffffffffffffff021916908373ffffffffffffffffffffffffffffffffffffffff1602179055506060820151816003015560808201518160040160006101000a81548173ffffffffffffffffffffffffffffffffffffffff021916908373ffffffffffffffffffffffffffffffffffffffff16021790555060a0820151816005015560c0820151816006015560e08201518160070190816105db9190610e94565b506101008201518160080160006101000a81548167ffffffffffffffff021916908367ffffffffffffffff1602179055509050503373ffffffffffffffffffffffffffffffffffffffff1689827fc8dcb7e50d731e58fd9d1007c35e31eb19a616a57dc2dab21e096e7e9db246168b8b8b8b8b8b8b42604051610665989796959493929190610fa2565b60405180910390a498975050505050505050565b60015481565b600073ffffffffffffffffffffffffffffffffffffffff82169050919050565b6000819050919050565b60006106c46106bf6106ba8461067f565b61069f565b61067f565b9050919050565b60006106d6826106a9565b9050919050565b60006106e8826106cb565b9050919050565b6106f8816106dd565b82525050565b600060208201905061071360008301846106ef565b92915050565b600080fd5b600080fd5b6000819050919050565b61073681610723565b811461074157600080fd5b50565b6000813590506107538161072d565b92915050565b60006020828403121561076f5761076e610719565b5b600061077d84828501610744565b91505092915050565b61078f81610723565b82525050565b60006107a08261067f565b9050919050565b6107b081610795565b82525050565b6000819050919050565b6107c9816107b6565b82525050565b600081519050919050565b600082825260208201905092915050565b60005b838110156108095780820151818401526020810190506107ee565b60008484015250505050565b6000601f19601f8301169050919050565b6000610831826107cf565b61083b81856107da565b935061084b8185602086016107eb565b61085481610815565b840191505092915050565b600067ffffffffffffffff82169050919050565b61087c8161085f565b82525050565b600061012082019050610898600083018c610786565b6108a5602083018b6107a7565b6108b2604083018a6107a7565b6108bf6060830189610786565b6108cc60808301886107a7565b6108d960a0830187610786565b6108e660c08301866107c0565b81810360e08301526108f88185610826565b9050610908610100830184610873565b9a9950505050505050505050565b61091f81610795565b811461092a57600080fd5b50565b60008135905061093c81610916565b92915050565b61094b816107b6565b811461095657600080fd5b50565b60008135905061096881610942565b92915050565b600080fd5b600080fd5b600080fd5b60008083601f8401126109935761099261096e565b5b8235905067ffffffffffffffff8111156109b0576109af610973565b5b6020830191508360018202830111156109cc576109cb610978565b5b9250929050565b60008060008060008060008060e0898b0312156109f3576109f2610719565b5b6000610a018b828c01610744565b9850506020610a128b828c0161092d565b9750506040610a238b828c01610744565b9650506060610a348b828c0161092d565b9550506080610a458b828c01610744565b94505060a0610a568b828c01610959565b93505060c089013567ffffffffffffffff811115610a7757610a7661071e565b5b610a838b828c0161097d565b92509250509295985092959890939650565b6000602082019050610aaa6000830184610786565b92915050565b7f4e487b7100000000000000000000000000000000000000000000000000000000600052602260045260246000fd5b60006002820490506001821680610af757607f821691505b602082108103610b0a57610b09610ab0565b5b50919050565b600081519050610b1f81610942565b92915050565b600060208284031215610b3b57610b3a610719565b5b6000610b4984828501610b10565b91505092915050565b6000604082019050610b6760008301856107c0565b610b7460208301846107a7565b9392505050565b60008115159050919050565b610b9081610b7b565b8114610b9b57600080fd5b50565b600081519050610bad81610b87565b92915050565b600060208284031215610bc957610bc8610719565b5b6000610bd784828501610b9e565b91505092915050565b7f4e4f545f434c5542000000000000000000000000000000000000000000000000600082015250565b6000610c166008836107da565b9150610c2182610be0565b602082019050919050565b60006020820190508181036000830152610c4581610c09565b9050919050565b7f4e487b7100000000000000000000000000000000000000000000000000000000600052601160045260246000fd5b6000610c8682610723565b91507fffffffffffffffffffffffffffffffffffffffffffffffffffffffffffffffff8203610cb857610cb7610c4c565b5b600182019050919050565b7f4e487b7100000000000000000000000000000000000000000000000000000000600052604160045260246000fd5b60008190508160005260206000209050919050565b60006020601f8301049050919050565b600082821b905092915050565b600060088302610d547fffffffffffffffffffffffffffffffffffffffffffffffffffffffffffffffff82610d17565b610d5e8683610d17565b95508019841693508086168417925050509392505050565b6000610d91610d8c610d8784610723565b61069f565b610723565b9050919050565b6000819050919050565b610dab83610d76565b610dbf610db782610d98565b848454610d24565b825550505050565b600090565b610dd4610dc7565b610ddf818484610da2565b505050565b5b81811015610e0357610df8600082610dcc565b600181019050610de5565b5050565b601f821115610e4857610e1981610cf2565b610e2284610d07565b81016020851015610e31578190505b610e45610e3d85610d07565b830182610de4565b50505b505050565b600082821c905092915050565b6000610e6b60001984600802610e4d565b1980831691505092915050565b6000610e848383610e5a565b9150826002028217905092915050565b610e9d826107cf565b67ffffffffffffffff811115610eb657610eb5610cc3565b5b610ec08254610adf565b610ecb828285610e07565b600060209050601f831160018114610efe5760008415610eec578287015190505b610ef68582610e78565b865550610f5e565b601f198416610f0c86610cf2565b60005b82811015610f3457848901518255600182019150602085019450602081019050610f0f565b86831015610f515784890151610f4d601f891682610e5a565b8355505b6001600288020188555050505b505050505050565b82818337600083830152505050565b6000610f8183856107da565b9350610f8e838584610f66565b610f9783610815565b840190509392505050565b600060e082019050610fb7600083018b6107a7565b610fc4602083018a610786565b610fd160408301896107a7565b610fde6060830188610786565b610feb60808301876107c0565b81810360a0830152610ffe818587610f75565b905061100d60c0830184610873565b999850505050505050505056fea2646970667358221220ecd97405cb978d10455c3b8987b4810878943bbd77219464505a2e4bf3266e5b64736f6c634300081c0033",
  "linkReferences": {},
  "deployedLinkReferences": {}
}