{
  "_format": "hh-sol-artifact-1",
  "contractName": "TransferRegistry",
  "sourceName": "contracts/TransferRegistry.sol",
  "abi": [
    {
      "inputs": [
        {
          "internalType": "address",
          "name": "admin",
          "type": "address"
        }
      ],
      "stateMutability": "nonpayable",
      "type": "constructor"
    },
    {
      "inputs": [],
      "name": "AccessControlBadConfirmation",
      "type": "error"
    },
    {
      "inputs": [
        {
          "internalType": "address",
          "name": "account",
          "type": "address"
        },
        {
          "internalType": "bytes32",
          "name": "neededRole",
          "type": "bytes32"
        }
      ],
      "name": "AccessControlUnauthorizedAccount",
      "type": "error"
    },
    {
      "anonymous": false,
      "inputs": [
        {
          "indexed": true,
          "internalType": "bytes32",
          "name": "role",
          "type": "bytes32"
        },
        {
          "indexed": true,
          "internalType": "bytes32",
          "name": "previousAdminRole",
          "type": "bytes32"
        },
        {
          "indexed": true,
          "internalType": "bytes32",
          "name": "newAdminRole",
          "type": "bytes32"
        }
      ],
      "name": "RoleAdminChanged",
      "type": "event"
    },
    {
      "anonymous": false,
      "inputs": [
        {
          "indexed": true,
          "internalType": "bytes32",
          "name": "role",
          "type": "bytes32"
        },
        {
          "indexed": true,
          "internalType": "address",
          "name": "account",
          "type": "address"
        },
        {
          "indexed": true,
          "internalType": "address",
          "name": "sender",
          "type": "address"
        }
      ],
      "name": "RoleGranted",
      "type": "event"
    },
    {
      "anonymous": false,
      "inputs": [
        {
          "indexed": true,
          "internalType": "bytes32",
          "name": "role",
          "type": "bytes32"
        },
        {
          "indexed": true,
          "internalType": "address",
          "name": "account",
          "type": "address"
        },
        {
          "indexed": true,
          "internalType": "address",
          "name": "sender",
          "type": "address"
        }
      ],
      "name": "RoleRevoked",
      "type": "event"
    },
    {
      "anonymous": false,
      "inputs": [
        {
          "indexed": true,
          "internalType": "uint256",
          "name": "id",
          "type": "uint256"
        },
        {
          "indexed": true,
          "internalType": "uint256",
          "name": "playerId",
          "type": "uint256"
        },
        {
          "indexed": true,
          "internalType": "address",
          "name": "fromClub",
          "type": "address"
        },
        {
          "indexed": false,
          "internalType": "address",
          "name": "toClub",
          "type": "address"
        },
        {
          "indexed": false,
          "internalType": "uint256",
          "name": "feeWei",
          "type": "uint256"
        },
        {
          "indexed": false,
          "internalType": "address",
          "name": "agent",
          "type": "address"
        },
        {
          "indexed": false,
          "internalType": "uint256",
          "name": "agentFeeWei",
          "type": "uint256"
        },
        {
          "indexed": false,
          "internalType": "bytes32",
          "name": "docSha256",
          "type": "bytes32"
        },
        {
          "indexed": false,
          "internalType": "string",
          "name": "ipfsCid",
          "type": "string"
        }
      ],
      "name": "TransferRecorded",
      "type": "event"
    },
    {
      "inputs": [],
      "name": "CLUB_ROLE",
      "outputs": [
        {
          "internalType": "bytes32",
          "name": "",
          "type": "bytes32"
        }
      ],
      "stateMutability": "view",
      "type": "function"
    },
    {
      "inputs": [],
      "name": "DEFAULT_ADMIN_ROLE",
      "outputs": [
        {
          "internalType": "bytes32",
          "name": "",
          "type": "bytes32"
        }
      ],
      "stateMutability": "view",
      "type": "function"
    },
    {
      "inputs": [
        {
          "internalType": "bytes32",
          "name": "role",
          "type": "bytes32"
        }
      ],
      "name": "getRoleAdmin",
      "outputs": [
        {
          "internalType": "bytes32",
          "name": "",
          "type": "bytes32"
        }
      ],
      "stateMutability": "view",
      "type": "function"
    },
    {
      "inputs": [
        {
          "internalType": "uint256",
          "name": "id",
          "type": "uint256"
        }
      ],
      "name": "getTransfer",
      "outputs": [
        {
          "components": [
            {
              "internalType": "uint256",
              "name": "id",
              "type": "uint256"
            },
            {
              "internalType": "uint256",
              "name": "playerId",
              "type": "uint256"
            },
            {
              "internalType": "address",
              "name": "fromClub",
              "type": "address"
            },
            {
              "internalType": "address",
              "name": "toClub",
              "type": "address"
            },
            {
              "internalType": "uint256",
              "name": "feeWei",
              "type": "uint256"
            },
            {
              "internalType": "address",
              "name": "agent",
              "type": "address"
            },
            {
              "internalType": "uint256",
              "name": "agentFeeWei",
              "type": "uint256"
            },
            {
              "internalType": "bytes32",
              "name": "docSha256",
              "type": "bytes32"
            },
            {
              "internalType": "string",
              "name": "ipfsCid",
              "type": "string"
            },
            {
              "internalType": "uint256",
              "name": "ts",
              "type": "uint256"
            }
          ],
          "internalType": "struct TransferRegistry.Transfer",
          "name": "",
          "type": "tuple"
        }
      ],
      "stateMutability": "view",
      "type": "function"
    },
    {
      "inputs": [
        {
          "internalType": "bytes32",
          "name": "role",
          "type": "bytes32"
        },
        {
          "internalType": "address",
          "name": "account",
          "type": "address"
        }
      ],
      "name": "grantRole",
      "outputs": [],
      "stateMutability": "nonpayable",
      "type": "function"
    },
    {
      "inputs": [
        {
          "internalType": "bytes32",
          "name": "role",
          "type": "bytes32"
        },
        {
          "internalType": "address",
          "name": "account",
          "type": "address"
        }
      ],
      "name": "hasRole",
      "outputs": [
        {
          "internalType": "bool",
          "name": "",
          "type": "bool"
        }
      ],
      "stateMutability": "view",
      "type": "function"
    },
    {
      "inputs": [],
      "name": "lastId",
      "outputs": [
        {
          "internalType": "uint256",
          "name": "",
          "type": "uint256"
        }
      ],
      "stateMutability": "view",
      "type": "function"
    },
    {
      "inputs": [
        {
          "internalType": "uint256",
          "name": "playerId",
          "type": "uint256"
        },
        {
          "internalType": "address",
          "name": "toClub",
          "type": "address"
        },
        {
          "internalType": "uint256",
          "name": "feeWei",
          "type": "uint256"
        },
        {
          "internalType": "address",
          "name": "agent",
          "type": "address"
        },
        {
          "internalType": "uint256",
          "name": "agentFeeWei",
          "type": "uint256"
        },
        {
          "internalType": "bytes32",
          "name": "docSha256",
          "type": "bytes32"
        },
        {
          "internalType": "string",
          "name": "ipfsCid",
          "type": "string"
        }
      ],
      "name": "recordTransfer",
      "outputs": [
        {
          "internalType": "uint256",
          "name": "id",
          "type": "uint256"
        }
      ],
      "stateMutability": "nonpayable",
      "type": "function"
    },
    {
      "inputs": [
        {
          "internalType": "bytes32",
          "name": "role",
          "type": "bytes32"
        },
        {
          "internalType": "address",
          "name": "callerConfirmation",
          "type": "address"
        }
      ],
      "name": "renounceRole",
      "outputs": [],
      "stateMutability": "nonpayable",
      "type": "function"
    },
    {
      "inputs": [
        {
          "internalType": "bytes32",
          "name": "role",
          "type": "bytes32"
        },
        {
          "internalType": "address",
          "name": "account",
          "type": "address"
        }
      ],
      "name": "revokeRole",
      "outputs": [],
      "stateMutability": "nonpayable",
      "type": "function"
    },
    {
      "inputs": [
        {
          "internalType": "bytes4",
          "name": "interfaceId",
          "type": "bytes4"
        }
      ],
      "name": "supportsInterface",
      "outputs": [
        {
          "internalType": "bool",
          "name": "",
          "type": "bool"
        }
      ],
      "stateMutability": "view",
      "type": "function"
    },
    {
      "inputs": [
        {
          "internalType": "uint256",
          "name": "",
          "type": "uint256"
        }
      ],
      "name": "transfers",
      "outputs": [
        {
          "internalType": "uint256",
          "name": "id",
          "type": "uint256"
        },
        {
          "internalType": "uint256",
          "name": "playerId",
          "type": "uint256"
        },
        {
          "internalType": "address",
          "name": "fromClub",
          "type": "address"
        },
        {
          "internalType": "address",
          "name": "toClub",
          "type": "address"
        },
        {
          "internalType": "uint256",
          "name": "feeWei",
          "type": "uint256"
        },
        {
          "internalType": "address",
          "name": "agent",
          "type": "address"
        },
        {
          "internalType": "uint256",
          "name": "agentFeeWei",
          "type": "uint256"
        },
        {
          "internalType": "bytes32",
          "name": "docSha256",
          "type": "bytes32"
        },
        {
          "internalType": "string",
          "name": "ipfsCid",
          "type": "string"
        },
        {
          "internalType": "uint256",
          "name": "ts",
          "type": "uint256"
        }
      ],
      "stateMutability": "view",
      "type": "function"
    }
  ],
  "bytecode": "0x608060405234801561001057600080fd5b50604051611b55380380611b558339818101604052810190610032919061024f565b6100456000801b8261007d60201b60201c565b506100767fba2dc669204b26427a432593e1c6ac86ab4ccc54d29c4287abbd1cefc1cb002b8261007d60201b60201c565b505061027c565b600061008f838361017a60201b60201c565b61016f57600160008085815260200190815260200160002060000160008473ffffffffffffffffffffffffffffffffffffffff1673ffffffffffffffffffffffffffffffffffffffff16815260200190815260200160002060006101000a81548160ff02191690831515021790555061010c6101e460201b60201c565b73ffffffffffffffffffffffffffffffffffffffff168273ffffffffffffffffffffffffffffffffffffffff16847f2f8788117e7eff1d82e926ec794901d17c78024a50270940304540a733656f0d60405160405180910390a460019050610174565b600090505b92915050565b600080600084815260200190815260200160002060000160008373ffffffffffffffffffffffffffffffffffffffff1673ffffffffffffffffffffffffffffffffffffffff16815260200190815260200160002060009054906101000a900460ff16905092915050565b600033905090565b600080fd5b600073ffffffffffffffffffffffffffffffffffffffff82169050919050565b600061021c826101f1565b9050919050565b61022c81610211565b811461023757600080fd5b50565b60008151905061024981610223565b92915050565b600060208284031215610265576102646101ec565b5b60006102738482850161023a565b91505092915050565b6118ca8061028b6000396000f3fe608060405234801561001057600080fd5b50600436106100b45760003560e01c8063a217fddf11610071578063a217fddf146101ba578063c1292cc3146101d8578063c16fe907146101f6578063c331a5f014610226578063d547741f14610256578063fc8045b114610272576100b4565b806301ffc9a7146100b9578063248a9ca3146100e95780632f2ff15d1461011957806336568abe1461013557806391d14854146101515780639377d71114610181575b600080fd5b6100d360048036038101906100ce9190610deb565b610290565b6040516100e09190610e33565b60405180910390f35b61010360048036038101906100fe9190610e84565b61030a565b6040516101109190610ec0565b60405180910390f35b610133600480360381019061012e9190610f39565b610329565b005b61014f600480360381019061014a9190610f39565b61034b565b005b61016b60048036038101906101669190610f39565b6103c6565b6040516101789190610e33565b60405180910390f35b61019b60048036038101906101969190610faf565b610430565b6040516101b19a9998979695949392919061108a565b60405180910390f35b6101c261056c565b6040516101cf9190610ec0565b60405180910390f35b6101e0610573565b6040516101ed919061112d565b60405180910390f35b610210600480360381019061020b9190610faf565b610579565b60405161021d9190611299565b60405180910390f35b610240600480360381019061023b91906113f0565b610777565b60405161024d919061112d565b60405180910390f35b610270600480360381019061026b9190610f39565b6109e7565b005b61027a610a09565b6040516102879190610ec0565b60405180910390f35b60007f7965db0b000000000000000000000000000000000000000000000000000000007bffffffffffffffffffffffffffffffffffffffffffffffffffffffff1916827bffffffffffffffffffffffffffffffffffffffffffffffffffffffff19161480610303575061030282610a2d565b5b9050919050565b6000806000838152602001908152602001600020600101549050919050565b6103328261030a565b61033b81610a97565b6103458383610aab565b50505050565b610353610b9c565b73ffffffffffffffffffffffffffffffffffffffff168173ffffffffffffffffffffffffffffffffffffffff16146103b7576040517f6697b23200000000000000000000000000000000000000000000000000000000815260040160405180910390fd5b6103c18282610ba4565b505050565b600080600084815260200190815260200160002060000160008373ffffffffffffffffffffffffffffffffffffffff1673ffffffffffffffffffffffffffffffffffffffff16815260200190815260200160002060009054906101000a900460ff16905092915050565b60026020528060005260406000206000915090508060000154908060010154908060020160009054906101000a900473ffffffffffffffffffffffffffffffffffffffff16908060030160009054906101000a900473ffffffffffffffffffffffffffffffffffffffff16908060040154908060050160009054906101000a900473ffffffffffffffffffffffffffffffffffffffff16908060060154908060070154908060080180546104e3906114dd565b80601f016020809104026020016040519081016040528092919081815260200182805461050f906114dd565b801561055c5780601f106105315761010080835404028352916020019161055c565b820191906000526020600020905b81548152906001019060200180831161053f57829003601f168201915b505050505090806009015490508a565b6000801b81565b60015481565b610581610ce7565b600260008381526020019081526020016000206040518061014001604052908160008201548152602001600182015481526020016002820160009054906101000a900473ffffffffffffffffffffffffffffffffffffffff1673ffffffffffffffffffffffffffffffffffffffff1673ffffffffffffffffffffffffffffffffffffffff1681526020016003820160009054906101000a900473ffffffffffffffffffffffffffffffffffffffff1673ffffffffffffffffffffffffffffffffffffffff1673ffffffffffffffffffffffffffffffffffffffff168152602001600482015481526020016005820160009054906101000a900473ffffffffffffffffffffffffffffffffffffffff1673ffffffffffffffffffffffffffffffffffffffff1673ffffffffffffffffffffffffffffffffffffffff16815260200160068201548152602001600782015481526020016008820180546106e4906114dd565b80601f0160208091040260200160405190810160405280929190818152602001828054610710906114dd565b801561075d5780601f106107325761010080835404028352916020019161075d565b820191906000526020600020905b81548152906001019060200180831161074057829003601f168201915b505050505081526020016009820154815250509050919050565b60007fba2dc669204b26427a432593e1c6ac86ab4ccc54d29c4287abbd1cefc1cb002b6107a381610a97565b6001600081546107b29061153d565b91905081905591506040518061014001604052808381526020018a81526020013373ffffffffffffffffffffffffffffffffffffffff1681526020018973ffffffffffffffffffffffffffffffffffffffff1681526020018881526020018773ffffffffffffffffffffffffffffffffffffffff1681526020018681526020018581526020018481526020014281525060026000848152602001908152602001600020600082015181600001556020820151816001015560408201518160020160006101000a81548173ffffffffffffffffffffffffffffffffffffffff021916908373ffffffffffffffffffffffffffffffffffffffff16021790555060608201518160030160006101000a81548173ffffffffffffffffffffffffffffffffffffffff021916908373ffffffffffffffffffffffffffffffffffffffff1602179055506080820151816004015560a08201518160050160006101000a81548173ffffffffffffffffffffffffffffffffffffffff021916908373ffffffffffffffffffffffffffffffffffffffff16021790555060c0820151816006015560e082015181600701556101008201518160080190816109729190611731565b5061012082015181600901559050503373ffffffffffffffffffffffffffffffffffffffff1689837f1093186fdf65ca31af3c2dfd067a1353c183c2cea0bd5a729988ba829419cea18b8b8b8b8b8b6040516109d396959493929190611803565b60405180910390a450979650505050505050565b6109f08261030a565b6109f981610a97565b610a038383610ba4565b50505050565b7fba2dc669204b26427a432593e1c6ac86ab4ccc54d29c4287abbd1cefc1cb002b81565b60007f01ffc9a7000000000000000000000000000000000000000000000000000000007bffffffffffffffffffffffffffffffffffffffffffffffffffffffff1916827bffffffffffffffffffffffffffffffffffffffffffffffffffffffff1916149050919050565b610aa881610aa3610b9c565b610c96565b50565b6000610ab783836103c6565b610b9157600160008085815260200190815260200160002060000160008473ffffffffffffffffffffffffffffffffffffffff1673ffffffffffffffffffffffffffffffffffffffff16815260200190815260200160002060006101000a81548160ff021916908315150217905550610b2e610b9c565b73ffffffffffffffffffffffffffffffffffffffff168273ffffffffffffffffffffffffffffffffffffffff16847f2f8788117e7eff1d82e926ec794901d17c78024a50270940304540a733656f0d60405160405180910390a460019050610b96565b600090505b92915050565b600033905090565b6000610bb083836103c6565b15610c8b57600080600085815260200190815260200160002060000160008473ffffffffffffffffffffffffffffffffffffffff1673ffffffffffffffffffffffffffffffffffffffff16815260200190815260200160002060006101000a81548160ff021916908315150217905550610c28610b9c565b73ffffffffffffffffffffffffffffffffffffffff168273ffffffffffffffffffffffffffffffffffffffff16847ff6391f5c32d9c69d2a47ea670b442974b53935d1edc7fd64eb21e047a839171b60405160405180910390a460019050610c90565b600090505b92915050565b610ca082826103c6565b610ce35780826040517fe2517d3f000000000000000000000000000000000000000000000000000000008152600401610cda92919061186b565b60405180910390fd5b5050565b6040518061014001604052806000815260200160008152602001600073ffffffffffffffffffffffffffffffffffffffff168152602001600073ffffffffffffffffffffffffffffffffffffffff16815260200160008152602001600073ffffffffffffffffffffffffffffffffffffffff168152602001600081526020016000801916815260200160608152602001600081525090565b6000604051905090565b600080fd5b600080fd5b60007fffffffff0000000000000000000000000000000000000000000000000000000082169050919050565b610dc881610d93565b8114610dd357600080fd5b50565b600081359050610de581610dbf565b92915050565b600060208284031215610e0157610e00610d89565b5b6000610e0f84828501610dd6565b91505092915050565b60008115159050919050565b610e2d81610e18565b82525050565b6000602082019050610e486000830184610e24565b92915050565b6000819050919050565b610e6181610e4e565b8114610e6c57600080fd5b50565b600081359050610e7e81610e58565b92915050565b600060208284031215610e9a57610e99610d89565b5b6000610ea884828501610e6f565b91505092915050565b610eba81610e4e565b82525050565b6000602082019050610ed56000830184610eb1565b92915050565b600073ffffffffffffffffffffffffffffffffffffffff82169050919050565b6000610f0682610edb565b9050919050565b610f1681610efb565b8114610f2157600080fd5b50565b600081359050610f3381610f0d565b92915050565b60008060408385031215610f5057610f4f610d89565b5b6000610f5e85828601610e6f565b9250506020610f6f85828601610f24565b9150509250929050565b6000819050919050565b610f8c81610f79565b8114610f9757600080fd5b50565b600081359050610fa981610f83565b92915050565b600060208284031215610fc557610fc4610d89565b5b6000610fd384828501610f9a565b91505092915050565b610fe581610f79565b82525050565b610ff481610efb565b82525050565b600081519050919050565b600082825260208201905092915050565b60005b83811015611034578082015181840152602081019050611019565b60008484015250505050565b6000601f19601f8301169050919050565b600061105c82610ffa565b6110668185611005565b9350611076818560208601611016565b61107f81611040565b840191505092915050565b6000610140820190506110a0600083018d610fdc565b6110ad602083018c610fdc565b6110ba604083018b610feb565b6110c7606083018a610feb565b6110d46080830189610fdc565b6110e160a0830188610feb565b6110ee60c0830187610fdc565b6110fb60e0830186610eb1565b81810361010083015261110e8185611051565b905061111e610120830184610fdc565b9b9a5050505050505050505050565b60006020820190506111426000830184610fdc565b92915050565b61115181610f79565b82525050565b61116081610efb565b82525050565b61116f81610e4e565b82525050565b600082825260208201905092915050565b600061119182610ffa565b61119b8185611175565b93506111ab818560208601611016565b6111b481611040565b840191505092915050565b6000610140830160008301516111d86000860182611148565b5060208301516111eb6020860182611148565b5060408301516111fe6040860182611157565b5060608301516112116060860182611157565b5060808301516112246080860182611148565b5060a083015161123760a0860182611157565b5060c083015161124a60c0860182611148565b5060e083015161125d60e0860182611166565b506101008301518482036101008601526112778282611186565b91505061012083015161128e610120860182611148565b508091505092915050565b600060208201905081810360008301526112b381846111bf565b905092915050565b600080fd5b600080fd5b7f4e487b7100000000000000000000000000000000000000000000000000000000600052604160045260246000fd5b6112fd82611040565b810181811067ffffffffffffffff8211171561131c5761131b6112c5565b5b80604052505050565b600061132f610d7f565b905061133b82826112f4565b919050565b600067ffffffffffffffff82111561135b5761135a6112c5565b5b61136482611040565b9050602081019050919050565b82818337600083830152505050565b600061139361138e84611340565b611325565b9050828152602081018484840111156113af576113ae6112c0565b5b6113ba848285611371565b509392505050565b600082601f8301126113d7576113d66112bb565b5b81356113e7848260208601611380565b91505092915050565b600080600080600080600060e0888a03121561140f5761140e610d89565b5b600061141d8a828b01610f9a565b975050602061142e8a828b01610f24565b965050604061143f8a828b01610f9a565b95505060606114508a828b01610f24565b94505060806114618a828b01610f9a565b93505060a06114728a828b01610e6f565b92505060c088013567ffffffffffffffff81111561149357611492610d8e565b5b61149f8a828b016113c2565b91505092959891949750929550565b7f4e487b7100000000000000000000000000000000000000000000000000000000600052602260045260246000fd5b600060028204905060018216806114f557607f821691505b602082108103611508576115076114ae565b5b50919050565b7f4e487b7100000000000000000000000000000000000000000000000000000000600052601160045260246000fd5b600061154882610f79565b91507fffffffffffffffffffffffffffffffffffffffffffffffffffffffffffffffff820361157a5761157961150e565b5b600182019050919050565b60008190508160005260206000209050919050565b60006020601f8301049050919050565b600082821b905092915050565b6000600883026115e77fffffffffffffffffffffffffffffffffffffffffffffffffffffffffffffffff826115aa565b6115f186836115aa565b95508019841693508086168417925050509392505050565b6000819050919050565b600061162e61162961162484610f79565b611609565b610f79565b9050919050565b6000819050919050565b61164883611613565b61165c61165482611635565b8484546115b7565b825550505050565b600090565b611671611664565b61167c81848461163f565b505050565b5b818110156116a057611695600082611669565b600181019050611682565b5050565b601f8211156116e5576116b681611585565b6116bf8461159a565b810160208510156116ce578190505b6116e26116da8561159a565b830182611681565b50505b505050565b600082821c905092915050565b6000611708600019846008026116ea565b1980831691505092915050565b600061172183836116f7565b9150826002028217905092915050565b61173a82610ffa565b67ffffffffffffffff811115611753576117526112c5565b5b61175d82546114dd565b6117688282856116a4565b600060209050601f83116001811461179b5760008415611789578287015190505b6117938582611715565b8655506117fb565b601f1984166117a986611585565b60005b828110156117d1578489015182556001820191506020850194506020810190506117ac565b868310156117ee57848901516117ea601f8916826116f7565b8355505b6001600288020188555050505b505050505050565b600060c0820190506118186000830189610feb565b6118256020830188610fdc565b6118326040830187610feb565b61183f6060830186610fdc565b61184c6080830185610eb1565b81810360a083015261185e8184611051565b9050979650505050505050565b60006040820190506118806000830185610feb565b61188d6020830184610eb1565b939250505056fea26469706673582212202308b1cb8fa7f2e4210b9e1a67c3ba39e172dd60d9451f0465433c86714d445e64736f6c634300081c0033",
  "linkReferences": {},
  "deployedLinkReferences": {}
}